:020000040800F2
:10000000005000205535000881370008833700086C
:1000100000000000000000000000000000000000E0
:10002000000000000000000000000000853700080C
:100030000000000000000000873700088937000832
:10004000A5350008A5350008A5350008A535000828
:10005000A5350008A5350008A5350008A535000818
:10006000A5350008A5350008A5350008A535000808
:10007000A5350008A5350008A5350008A5350008F8
:10008000A5350008A5350008A535000800000000CA
:10009000A5350008A5350008A5350008A5350008D8
:1000A000A5350008A5350008A5350008A5350008C8
:1000B000A5350008A535000800000000A53500089A
:1000C00010B5064C2378002B07D1054B002B02D02E
:1000D000044800E000BF0123237010BD140000207D
:1000E00000000000643A0008044B10B5002B03D058
:1000F0000349044800E000BF10BDC04600000000F6
:1001000018000020643A000802B47146490849000A
:10011000095C49008E4402BC7047C0460022430877
:100120008B4274D303098B425FD3030A8B4244D3BF
:10013000030B8B4228D3030C8B420DD3FF22090201
:1001400012BA030C8B4202D31212090265D0030BC0
:100150008B4219D300E0090AC30B8B4201D3CB03B6
:10016000C01A5241830B8B4201D38B03C01A5241F8
:10017000430B8B4201D34B03C01A5241030B8B42FA
:1001800001D30B03C01A5241C30A8B4201D3CB02E5
:10019000C01A5241830A8B4201D38B02C01A5241CA
:1001A000430A8B4201D34B02C01A5241030A8B42CD
:1001B00001D30B02C01A5241CDD2C3098B4201D3E5
:1001C000CB01C01A524183098B4201D38B01C01A63
:1001D000524143098B4201D34B01C01A52410309DA
:1001E0008B4201D30B01C01A5241C3088B4201D389
:1001F000CB00C01A524183088B4201D38B00C01A36
:10020000524143088B4201D34B00C01A5241411A5C
:1002100000D20146524110467047FFE701B5002069
:1002200000F0F0F802BDC0460029F7D076E770472D
:1002300003460B437FD4002243088B4274D3030947
:100240008B425FD3030A8B4244D3030B8B4228D3E8
:10025000030C8B420DD3FF22090212BA030C8B420E
:1002600002D31212090265D0030B8B4219D300E0AE
:10027000090AC30B8B4201D3CB03C01A5241830B33
:100280008B4201D38B03C01A5241430B8B4201D3E3
:100290004B03C01A5241030B8B4201D30B03C01A0C
:1002A0005241C30A8B4201D3CB02C01A5241830A86
:1002B0008B4201D38B02C01A5241430A8B4201D3B5
:1002C0004B02C01A5241030A8B4201D30B02C01ADF
:1002D0005241CDD2C3098B4201D3CB01C01A524146
:1002E00083098B4201D38B01C01A524143098B42CF
:1002F00001D34B01C01A524103098B4201D30B01B8
:10030000C01A5241C3088B4201D3CB00C01A5241DC
:1003100083088B4201D38B00C01A524143088B42A1
:1003200001D34B00C01A5241411A00D2014652413A
:10033000104670475DE0CA0F00D04942031000D359
:100340004042534000229C4603098B422DD3030AAE
:100350008B4212D3FC22890112BA030A8B420CD3BE
:10036000890192118B4208D3890192118B4204D3E7
:1003700089013AD0921100E08909C3098B4201D367
:10038000CB01C01A524183098B4201D38B01C01AA1
:10039000524143098B4201D34B01C01A5241030918
:1003A0008B4201D30B01C01A5241C3088B4201D3C7
:1003B000CB00C01A524183088B4201D38B00C01A74
:1003C0005241D9D243088B4201D34B00C01A52414B
:1003D000411A00D20146634652415B10104601D3D8
:1003E0004042002B00D54942704763465B1000D362
:1003F000404201B5002000F005F802BD0029F8D008
:1004000016E770477047C046002B11D1002A0FD164
:10041000002900D1002802D00021C943081C07B4DC
:10042000024802A14018029003BDC046D9FFFFFF59
:1004300003B4684601B5029800F006F8019B9E4699
:1004400002B00CBC7047C046F0B54F464646D64693
:10045000C0B5040082B00D00914698468B422FD85B
:100460002CD04146484600F0B1F829000600200093
:1004700000F0ACF8331A9C46203B9A4600D576E053
:100480004B46524693401F004B46624693401E0027
:10049000AF4228D825D05346A41BBD41002B00DA1B
:1004A0007BE00022002300920193012352469340F7
:1004B0000193012362469340009318E08242D0D911
:1004C00000220023009201930A9B002B01D01C60A4
:1004D0005D600098019902B01CBC90469946A24606
:1004E000F0BDA342D7D900220023009201936346B6
:1004F000002BE9D0FB079846414672080A437B0867
:1005000066460EE0AB4201D1A2420CD8A41A9D412E
:10051000012024196D410021013E24184D41002E77
:1005200006D0AB42EED9013E24196D41002EF8D120
:1005300000980199534600196941002B23DB2B00D9
:100540005246D3402A006446E2401C005346150040
:10055000002B2DDB26005746BE40330026006746A1
:10056000BE403200801A994100900191ACE762468A
:1005700020239B1A4A46DA406146130042468A40CD
:1005800017001F4380E7624620239B1A2A00664615
:100590009A402300F3401343D4E76246202300210E
:1005A0009B1A0022009101920122DA40019280E719
:1005B0002023624626009B1ADE402F00B046664686
:1005C000B74046463B003343C8E7C04610B5002954
:1005D00003D100F007F8203002E0081C00F002F818
:1005E00010BDC0461C2101231B04984201D3000CFE
:1005F00010391B0A984201D3000A08391B09984296
:1006000001D30009043902A2105C40187047C046AB
:1006100004030202010101010000000000000000CB
:100620000023C25C0133002AFBD1581E7047000032
:10063000FA21084B10B5890004001868FFF76EFD19
:1006400000F070FB012000222100404200F036FB48
:10065000002010BD100000200223064A10B51168CA
:1006600003200B431360FFF7E3FF00F045FE00207B
:1006700010BDC04600200240024A136801331360D7
:100680007047C04664000020014B18687047C046A0
:100690006400002013B50190FFF7F6FF0400FFF798
:1006A000F3FF019B001B9842F9D313BD084B13B510
:1006B000040008491868FFF731FD44430194019B89
:1006C000002B00D113BD019B013B0193F7E7C0460E
:1006D0001000002040420F000321036870B59A68A3
:1006E00004000A40012A04D11968114201D00020F7
:1006F00070BD9968134A114208D010230120A26DE1
:100700001343A365E36D0343E365F1E701259A68AD
:1007100028002A439A60FFF7C9FFFFF7B5FF0600DC
:1007200023681B682B42E2D1FFF7AEFF801B0A282B
:10073000F6D91023A26D01201343A365E36D1D4379
:10074000E565D5E7170000800321036870B5040054
:1007500098680840012801D0002070BD1A68024244
:10076000FAD005229D681540012D19D19868033AE9
:1007700002439A601960FFF787FF060023689B68B1
:100780002B42E9D0FFF780FF801B0A28F6D91023FF
:10079000A26D01201343A365E36D1D43E565DCE70E
:1007A0001023A26D1343A365E36D0343E365D4E710
:1007B0000422036870B599680400114201D1002039
:1007C00070BD9968114206D09A68920703D410222E
:1007D00099680A439A60FFF757FF042506002368CB
:1007E0009B682B42EBD0FFF74FFF801B0A28F6D9FE
:1007F00010230120A26D1343A365E36D0343E3655A
:10080000DEE7704770B504000120002C19D0A36DFD
:10081000002B06D122005432E36520001370FFF74D
:10082000F0FFA36DDB0604D404222368986810400F
:1008300008D01023A26D01201343A3650023543474
:10084000237070BDA26D5349114002220A43A26574
:10085000032299681140504A012902D11D680D42B6
:1008600019D180266168F6054D006D08B54203D0A8
:1008700080252D06A94272D11D69AD00AD081D610C
:100880001D69294319611825D968A943D960D96818
:10089000A5682943D9601168404D29401160A16BBA
:1008A0001568490629431160802299685205114252
:1008B00002D199680A439A60DA6839490A40216985
:1008C000DA60DD68E268022900D10420666B216AE3
:1008D00032432A434D032A43256B6D002A43A56901
:1008E000AD032A43E569ED032A430243C220DA60DF
:1008F000A26AFF30824204D0E56AD8682A430243E4
:10090000DA60626A012A06D1002934D18022D968CE
:1009100052020A43DA60216C1A69012933D1214855
:10092000A56C02401A61626C18692A43E56C2A437F
:1009300002431A611A691143196107215A6900209B
:100940008A435A615A69E16B0A435A610322E0659E
:10095000A36D93431A0001231343A36571E71D6937
:10096000114EAD00AD081D61156835401560156864
:100970002943116087E72021A06D0143A165E16D46
:100980000A43E265C7E701210A42D6D01A698A43C1
:100990001A61D2E7FDFEFFFF08270140FFFFFFFDC0
:1009A0001902FEFF03FCFFFFFFFFC3FF70470000BB
:1009B00070B504000125002811D00223826D134375
:1009C0008365FFF7F5FE051E37D12000FFF7BCFE5B
:1009D0000500012805D10125002354342370280087
:1009E00070BD0123A365236815495A6820000A4099
:1009F0005A60144A14491A609A680A409A60DA6880
:100A000012490A40DA601A6911490A4007211A613D
:100A10005A698A435A611A6A0E490A407F211A624A
:100A2000B4331A688A431A601A688A431A60FFF757
:100A3000BDFF0023E365A365CEE70128CBD0D2E755
:100A400060F7FFFF9F080000FFFFFFEF00023E83FB
:100A500002FCFF3F00F000F0036870B59B680400E3
:100A600002205B071AD4250054352B78012B15D0B2
:100A700001232B70E369012B11D1A36D0B4A0020D8
:100A80001A4080235B0013431C22A3652368E065A2
:100A900028701A609968183A0A439A6070BD20005D
:100AA000FFF71AFE0028E8D0F8E7C046FEF0FFFF87
:100AB000F8B5456904000E00082D0DD0036801202B
:100AC000DB680C25034207D02023A26D5434134366
:100AD000636000232370F8BDFFF7D6FD070023688D
:100AE0001A68154223D08022A16D92000A43A265A4
:100AF000C022D9681201114212D1226A002A0FD1F4
:100B00001A6812070CD59A68520723D40C215A6828
:100B10008A435A60A26D1449114001220A43A2651A
:100B20000020A2698242D6D10C221A60D3E7721C3F
:100B3000D6D0002E08D10423A26D54341343636031
:100B4000002303202370C6E7FFF79EFDC01BB042C1
:100B5000C5D9F0E72022A16D0A43A2650122E16D0B
:100B60000A43E265DCE7C046FEFEFFFF0368186C3F
:100B700070470000F8B504005434237806000D00D7
:100B80000220012B0BD032680138916820704B078E
:100B900006D52022B16D0A43B26500222270F8BD4D
:100BA00080232868194E6F684103DB02490B03401C
:100BB000B74219D0906A01439162002B08D080237C
:100BC000134A1B0411680A200B431360FFF76EFDE4
:100BD0002B689B0305D580230D4ADB0311680B436B
:100BE000136000202070DAE7956A8D439562002B30
:100BF00004D0074A074913680B4013608303F0D5FC
:100C0000034A054913680B40EAE7C046011000009B
:100C100008270140FFFF7FFFFFFFBFFFF8B505007A
:100C200054352B7804000220012B44D001230322E9
:100C30002B70236898681040012809D11A68024275
:100C400006D02023A26D1343A36500232B7032E04E
:100C5000A26D1949114002220A430321A265DE68F0
:100C6000DA688A43DA608022996812060A439A6039
:100C7000FFF70AFD070023689A68002A0CDB0322AD
:100C8000D96816400E43DE60A36D002093431A001E
:100C900001231343A365D8E7FFF7F6FCC01B0A281E
:100CA000E9D91222A36D012093431A0010231343A4
:100CB000A36500232B70F8BDFDFEFFFF30B5FF25B7
:100CC00003242A00C3B21C40E400A2408901294049
:100CD000D243A14000280BDA0F200340083B0A480A
:100CE0009B089B001B18D86902401143D96130BD95
:100CF000064B80088000C018C0239B00C4582240C7
:100D00001143C150F3E7C04600ED00E000E100E010
:100D10001F2318401E3B8340014A13607047C046A2
:100D200000E100E0094A431E012093420DD8C02192
:100D3000074A08485360036A09061B021B0A0B4353
:100D4000036200200723906013607047FFFFFF00DD
:100D500010E000E000ED00E0054B1A68042802D125
:100D600010431860704704218A431A60FAE7C046AE
:100D700010E000E0F7B50E009508AD006B18019388
:100D80000368019CA64207D10324224019D0012AFE
:100D90000FD14A5D1A7014E03478777824063F0446
:100DA0003C43F7783C43B77804363F023C431C6031
:100DB000E7E76C18495D0902022A05D162780A4307
:100DC0001A8003681868FEBD62780A431A80A27808
:100DD000E0E7F0B50D00002600685408B44206D1E3
:100DE000D30702D5A400635A03800068F0BD2B88A6
:100DF0006F881B043B43036001360435EEE7704700
:100E000010B5041E01D1012010BD437FDBB2002BC1
:100E100002D10377FFF7F3FF022363772379002BD7
:100E20001CD118212368124A5A619A688A439A6031
:100E300062792368002A19D1013A60211A619A68FF
:100E400000208A4361690A4380219A609A688A4334
:100E5000A1690A439A6001236377D5E7E268A16834
:100E6000200000F032F80028E2D0CCE72269E4E765
:100E7000B71DC10470B50225037F04002800012BB3
:100E80001BD0012320686577856823772B43836017
:100E9000236A022B15D0032B06D00020012B08D18A
:100EA0002000FFF767FF04E092008A18914205D105
:100EB0000068012363770023237770BD08C90360AE
:100EC000F4E72000FFF785FFF3E730B51F230400A8
:100ED000012005009D40294209D1013BF9D2102A89
:100EE00003D0182A01D0082A12D101200CE0102AC0
:100EF0000BD0182A05D0082A0AD101200F2B07D9B8
:100F000002E00120062B03D930BD0120072BFBD8BE
:100F100020684161182183688B431A438260002056
:100F2000F2E700008021274A4900906930B500238C
:100F3000084205D0244802334469234343610B002F
:100F4000802091698000014205D001211E4C03439D
:100F500065692943616180209169C000014205D023
:100F60000821194C03436569294361618020916917
:100F70000001014205D00421134C03436569294354
:100F80006161802091698001014205D010210E4CE1
:100F900003436569294361619169890305D520206F
:100FA000094C0343616901436161802091694002FA
:100FB000014205D04021044C034365692943616126
:100FC000936130BD00200240680000200122094BDF
:100FD0001000596889070BD55968114203D0064A99
:100FE000DA60064ADA600020054A1A61054A1A6189
:100FF0007047C04600200240EFCDAB8905040302D4
:10100000BFAE9D8C161514130223034A00205168AD
:101010000B4353607047C0460020024070B5040087
:10102000FFF732FB01250600184A13009169294297
:101030001FD102219069084200D091619A69D205BE
:1010400013D49A69920510D49A6952050DD49A69FD
:1010500012050AD49A69920407D4802298699202F0
:10106000104002D19B69DB0308D5FFF75BFF01202D
:1010700004E0611CDAD0002C01D1032070BDFFF721
:1010800003FB801BA042CFD9F7E7C04600200240F7
:1010900070B50B4C0D00237C16000220012B0DD0E7
:1010A000012308482374FFF7B9FF002804D16061C9
:1010B0002E600448FFF7B2FF0023237470BDC046C2
:1010C0006800002050C3000000218022074B10B5AB
:1010D0005961074B92005C6822435A6008225C68A1
:1010E00022435A607F239843016010BD68000020AE
:1010F00000200240F8B5194B06001B7C0F000225AA
:10110000012B27D00123154A15481374FFF786FFDA
:10111000051E1CD101235B423B607468B368726892
:10112000DB019B18A34212D92000FFF7CDFF0C482A
:10113000FFF774FF08210B4B5A688A435A605A68BC
:1011400009490A405A60002806D005003C60002387
:10115000024A13742800F8BD8034DFE768000020DD
:1011600050C3000000200240FFFDFFFFF0B5544ACD
:101170000B688218541EA24187B0039300230532E6
:101180000592039ADA4001D107B0F0BD01259D40D8
:10119000039A2A40029200D18FE04A6801921022FD
:1011A000019E9643022E0FD1DA089200072482187E
:1011B000176A04920F221C40A400A24097430A69B8
:1011C000A2401743049A176203225C00A240013E2A
:1011D000D243012E0DD8CE688768A64017403E4303
:1011E00086604668AE43019DED06ED0F9D40354398
:1011F00045600326019D07683540A54017403D43E3
:101200000560C5682A408D68A5402A43C260019ADE
:10121000D20052D501252B4CAC46626B0F272A43D6
:101220001D003540AD00AF406263274A9C08A40012
:10123000A418A268BA43A0270492FF050022B8426E
:1012400010D0224F6246B8420CD0214F9218B842BB
:1012500008D0204F3200B84204D01F4E6244B04242
:1012600000D0059AAA40049D019F2A43A2601B4A10
:10127000029C1668029DE4433543FF0301D4350008
:10128000254015605668029D019F3543BF0301D478
:101290003500254055609668029D019F3543FF0249
:1012A00001D4350025409560D568029E019F2E43EC
:1012B000BF0201D425402E00D660013361E7C0464D
:1012C00000E4FFAF001002400000014000040050A5
:1012D00000080050000C00500010005000040140B5
:1012E00000690840411E8841C0B27047002A01D001
:1012F000816170478162FCE770470000F022164B65
:1013000030B5D96811420AD00020012413490A6877
:10131000A24302430A600B682340584030BD80213D
:10132000C0229D6B49050E4C52010D420AD0236824
:101330001A40C0235B019A42E6D10A4BC0184342CF
:101340005841E2E79D6B294399632168064C0A40A6
:10135000996B21409963ECE70010024000200240A5
:10136000007000400040FFFFFFFFFFEFF0B5036893
:1013700085B00400DB074ED423689B0700D59FE0AF
:101380002368DB0635D50C23BC4DEA681A4200D031
:10139000E9E02B689B0502D5E369002B50D0E022E1
:1013A0006B68606A12021340984200D8C9E0FFF7E8
:1013B000A5FF002844D16B68B14A1340626A134309
:1013C0006B606A68236A12021B06120A13436B6081
:1013D000636AEA68590B802301311B028B401206B5
:1013E000A849120F8A5C0320D340A74A1360FFF775
:1013F0001FF923681B0700D5ECE023685B0700D5C5
:101400000FE123689B0600D590E1A16A002900D076
:10141000C0E1002015E00C21984DEB680B40082B33
:1014200008D08023EA685B020A408A420BD1EA684E
:101430001A4208D02B689B039ED56368002B9BD172
:10144000012005B0F0BD62689A4212D12A681343A8
:101450002B60FFF719F980260700B6022B6833428C
:1014600000D089E7FFF710F9C01B6428F6D90320E4
:10147000E7E7A021C9028A4205D180222968D20269
:101480000A432A60E2E72968804801402960296808
:101490000B400393039B7E492B680B402B60002A73
:1014A000D7D1FFF7F1F880260700B6022B68334248
:1014B00000D161E7FFF7E8F8C01B6428F6D9D6E74A
:1014C0000C216E4DEA680A40042A06D0EB680B40F6
:1014D0008B4210D1EB68DB030DD42B685B0702D580
:1014E000E368012BACD16A6823696A491B020A4090
:1014F00013436B6044E7E2682B68002A10D009218F
:101500008B4313432B60FFF7BFF8042607002B68BB
:101510003342E8D1FFF7B8F8C01B0228F7D9A6E795
:10152000012293432B60FFF7AFF8042607002B68D6
:10153000334200D124E7FFF7A7F8C01B0228F6D9F1
:1015400095E76B684E4A134003436B606A68236AF1
:1015500012021B06120A13436B60FFF7CFFE00282E
:1015600000D135E76CE7E369002B20D080232A689F
:101570005B0013432B60FFF787F880260700B60057
:101580002B6833420DD06B683D4A1340626A1343A7
:101590006B606A68236A12021B06120A13436B60AF
:1015A00027E7FFF771F8C01B0228E9D95FE72B682E
:1015B000394A802613402B60FFF766F80700B60013
:1015C0002B68334200D114E7FFF75EF8C01B0228F6
:1015D000F6D94CE762690123284D002A10D02A6D04
:1015E000022613432B65FFF74FF807002B6D33429C
:1015F00000D002E7FFF748F8C01B0228F6D936E70B
:101600002A6D02269A432A65FFF73EF807002B6DE4
:10161000334200D1F1E6FFF737F8C01B0228F6D9B4
:1016200025E780230021154D5B05AA6B00911A4226
:1016300004D1AA6B1343AB63012300938027174E99
:101640007F0033683B4208D08022A3685200934257
:1016500026D12A6D13432B6547E033683B43336043
:10166000FFF712F8019033683B42EDD1FFF70CF819
:10167000019BC01A6428F6D9F9E6C0460010024062
:10168000FF1FFFFF4043000810000020FFFFFEFF88
:10169000FFFFFBFFFFE0FFFFFFFEFFFF00700040CA
:1016A000002B16D12B6D604A802713402B652B6DC4
:1016B0005E4ABF0013402B65FEF7E6FF06002B6D68
:1016C0003B422AD0FEF7E0FF594B801B9842F6D9E7
:1016D000CDE6A021C9008B420DD18023296DDB000E
:1016E0000B432B652B6D1A432A65FEF7CDFF802730
:1016F0000600BF000EE02B6D4B4A13402B652B6D8F
:101700004A4A1340A7E7FEF7BFFF494B801B9842A8
:1017100000D9ACE62B6D3B42F5D0009B012B00D0ED
:101720006FE6AB6B434A1340AB636AE6A1690123E2
:10173000414D424A002918D0A96802261943A960E0
:10174000696B0B436B638023116A9B010B4313622C
:10175000FEF79AFF0700AB68334200D055E6FEF76C
:1017600093FFC01B0228F6D981E6A9680226994397
:10177000A960136A32490B401362FEF785FF070028
:10178000AB68334200D140E6FEF77EFFC01B022863
:10179000F6D96CE60C22284D0120EB6813409342E9
:1017A00000D14EE62B68274A13402B6002292BD12B
:1017B000FEF76AFF80260700B6042B6833421DD16E
:1017C000216BE36AEA680B431F490A401343626BCB
:1017D00080241343EB6080232A685B0413432B604F
:1017E000FEF752FF0600A4042B68234200D010E647
:1017F000FEF74AFF801B0228F6D938E6FEF744FFC1
:10180000C01B0228D9D932E6FEF73EFF802406002D
:10181000A4042B68234200D1FBE5FEF735FF801BB3
:101820000228F6D923E6C046FFFEFFFFFFFBFFFFBD
:1018300088130000FFFFFFEF00100240000001408E
:10184000FFDFFFFFFFFFFFFEFFFF02FF0C22194B30
:1018500010B5D9680A40082A29D00C2A09D0042AD0
:101860001DD11868144BC006C0171840134BC01880
:1018700010BD8A021248120F825C0902D868890FD3
:101880000131C00304D50F485043FEF747FCEFE792
:101890001B68DB0601D50C48F6E70848F4E7802012
:1018A0005B6800021B045B0F01339840E0E70548CA
:1018B000DEE7C0460010024000E548FF0024F400C7
:1018C0005843000800127A0000093D00F7B50122D4
:1018D000534C06002368019113408B4228D3326891
:1018E000930731D4D30737D40123226801991A40D2
:1018F0008A4200D985E032684A4C530700D588E017
:10190000130706D5E26833694749DB000A401343F1
:10191000E360FFF79BFFE368444A1B061B0FD35CA1
:10192000D840434B18600320FEF782FE00200AE0F7
:101930002368019993430B43236023681340019A62
:101940009342CCD00120FEBDF0203649CB688343C2
:10195000B0680343CB60C5E7324D72682B68022A3A
:1019600019D19B03EED50321EB688B431343EB6046
:10197000FEF78AFE73680700022B19D10C22EB6870
:101980001340082BB0D0FEF77FFE2A4BC01B9842B5
:10199000F4D90320D7E7032A02D19B01E3D4D1E78E
:1019A000012A02D15B07DED4CCE79B05DBD4C9E773
:1019B000032B0CD10C22EB681340934200D193E728
:1019C000FEF762FE1B4BC01B9842F3D9E1E7012BE7
:1019D00011D00C22EB68134200D185E7FEF754FECC
:1019E000144BC01B9842F4D9D3E7FEF74DFE114BC0
:1019F000C01B9842CDD80C22EB681340042BF4D1C5
:101A000072E722689A43226022681A4200D172E784
:101A100098E7E36808490B40F1680B43E3606FE720
:101A20000020024000100240FFC7FFFF40430008B3
:101A30001000002088130000FFF8FFFF014B18681A
:101A40007047C04610000020044B054ADB685B0568
:101A50005B0FD35C034A1068D84070470010024007
:101A60005043000810000020044B054ADB689B042B
:101A70005B0FD35C034A1068D840704700100240E7
:101A8000504300081000002010B5082800D1CBE01A
:101A900010D8022800D19CE0042800D1A9E0012838
:101AA0000ED103216D4AD36C0B4000D082E0FFF7CA
:101AB000DBFF52E0202819D004D8102800D1C3E061
:101AC00000204AE0402849D080235B009842F7D1AB
:101AD000C021624A8902D36C0B4000D17EE0802194
:101AE00089028B4268D080225202A9E0C024802162
:101AF0005A4AA402106D136D490223408B4203D150
:101B00008005C00FC00328E0802189028B4209D1E3
:101B10000223184043425841514B40421840514B18
:101B2000C0181AE00020A34217D113680B4214D04A
:101B3000C023106880229B031840920390420BD070
:101B4000984200D188E0484BC01843425841474B67
:101B500040421840464BE3E7464810BD80203F4BCB
:101B6000C004DA6C10401BD11A689201F5D5DA680E
:101B70004148D9689202120F825C0902D868890F25
:101B80000131C0030AD418683C4BC006C017184086
:101B90003B4BC0185043FEF7C1FADEE73948F9E77E
:101BA00098680223184043425841374B404218403E
:101BB000364BB5E7022B02D11068042324E0012B39
:101BC00002D1FFF743FEC8E70020032BC5D1106DFB
:101BD00096E70C21214AD36C0B4002D1FFF734FF6A
:101BE000BBE7082BE8D0042BEBD000200C2BEED069
:101BF000B3E7C021194A0901D36C0B40EED0802411
:101C00002401A34208D11368184043425841204B95
:101C1000404218401A4B83E78020C0008342D0D056
:101C200000208B42D3D098E7C0210C4A8901D36CA5
:101C30000B40D3D0802189018B42BDD0802252013C
:101C4000934200D03CE7BCE7044B986B8023DB0356
:101C5000184000D181E7C1E70E487EE7001002403E
:101C6000786FFFFF889000000000F0FF807BE1FFAD
:101C700000093D0040420F005843000800E548FFBE
:101C80000024F40000127A00009423FD006CDC02B2
:101C900000DC0BFF20A1070070470000F8B505002D
:101CA000036882680069196802436869854E0243C7
:101CB000E8690243844801400A431A605A6883492C
:101CC0000A40E9680A435A60A969B34201D02A6A06
:101CD00011439A687E4802400A439A607D4A9342C3
:101CE00017D103227C4BDB6C13407C4AD45C02206E
:101CF000FFF7CAFE2F680300B74267D1082C00D94E
:101D0000DEE02000FEF700FA31DC39DC5CDCDCDCF4
:101D10005F00734A934205D10C226F4BDB6C13407A
:101D2000704AE3E7704A00249342E0D06F4A93423E
:101D3000DDD01034B342DAD1C0228021664B1201CB
:101D4000DB6CC90013400C3C8B42D0D004D800247B
:101D5000A342CCD01024CAE78021022409018B427F
:101D6000C5D006349342C2D0F4E7FFF76DFE0024DD
:101D70000300A04209D12000F8BD574B5C481B6806
:101D80005C4ADB06DB1703409B1803216A680124C9
:101D900051439942EFD811039942ECD300275608DA
:101DA000190E1802801979413B00FEF72DFB524BAA
:101DB000C218524B9A42DED82B68D8600024DAE76A
:101DC000FFF744FDD3E780231B02DEE78022E969A9
:101DD000120291423FD1082C3AD82000FEF794F924
:101DE000050F17383038383833006A685B00110047
:101DF00050081818FEF792F9002480B216E0FFF799
:101E000033FE6B6840005B08C0186968F2E7324B2C
:101E100069681C68102348081C4002D0384BC01861
:101E2000E8E7384BC018FEF779F980B20F230200BB
:101E30009A43130000072A68400F1843D0609AE7BE
:101E4000FFF704FDDDE76B68580880235B02DBE7E2
:101E500001240020EAE7082C32D82000FEF754F9CC
:101E600005101330283030302B00FFF7EDFD696886
:101E70002C684B081818FEF751F980B2E0609DE716
:101E8000FFF7F2FDF3E7144B69681C68102348085C
:101E90001C4006D01C4BC018FEF740F980B2F86019
:101EA0008CE7144BC018FEF739F980B2F86062E78E
:101EB000FFF7CCFCDBE7802369681B024808EAE7F0
:101EC000012458E700480040F369FFEFFFCFFFFF10
:101ED000FFF4FFFF00380140001002407C3A000888
:101EE00000440040803A0008004C00400050004090
:101EF00000E548FF0024F40000FDFFFFFFFC0F0099
:101F000000127A000048E80100093D00436A30B53C
:101F1000DA0706D50168284C4A682240846A2243C1
:101F20004A609A0706D50168244C4A682240C46A70
:101F300022434A605A0706D50168214C4A6822406C
:101F4000046B22434A601A0706D501681D4C4A6893
:101F50002240446B22434A60DA0606D501681A4CD7
:101F60008A682240846B22438A609A0606D50168FB
:101F7000164C8A682240C46B22438A605A0610D5E8
:101F80000168134D4A68046C2A4022434A6080224B
:101F90005203944205D14A680E4C2240446C2243BD
:101FA0004A601B0606D502680B4953680B40816CDA
:101FB0000B43536030BDC046FFFFFDFFFFFFFEFF38
:101FC000FFFFFBFFFF7FFFFFFFEFFFFFFFDFFFFFD5
:101FD000FFFFEFFFFFFF9FFFFFFFF7FFF8B50400D4
:101FE0000E0015001F002268D36933409B1B594225
:101FF0004B41AB4201D0002018E0069B0133F3D0E7
:10200000069B002B13D123680C491A6803200A4051
:102010001A609A68A331FF318A439A602200202314
:10202000693213705370002368342370F8BDFEF7D3
:102030002BFB069BC01B9842D5D9E4E75FFEFFFF50
:10204000F0B5070085B0039369373B7804000D00B5
:1020500016000220202B46D10138002943D0002A47
:1020600041D08023A2685B019A4204D12369002BEE
:1020700001D1014237D1230068331A780220012AA6
:1020800031D001221A700023E36621333B70FEF742
:10209000FBFA230050331E805E808026029076017A
:1020A000210052310A8892B2002A0DD1039B4021AF
:1020B00000932000029BFFF791FF002812D12023FC
:1020C00068343B7020700EE00B880022013B9BB20D
:1020D0000B80039B802100932000029BFFF77EFF73
:1020E000002802D0032005B0F0BDA3682268B342E7
:1020F00008D12369002B05D12B880235DB05DB0DC8
:102100009362CDE72B7801359362C9E7F0B51F00E4
:1021100003006A3316001A78040085B00D0002200F
:10212000202A39D10138002936D0002E34D080221F
:10213000A1685201914204D12269002A01D10542CD
:102140002AD12200683211780220012924D00121ED
:1021500011700022E26622321A70FEF795FA23000F
:102160008021A26858331E805E80039049010433A9
:102170008A4215D12269002A10D1234A1A801E886A
:1021800022005A32108880B2002819D12300202260
:102190006A3368341A70207005B0F0BDFF22EDE795
:1021A000002A04D12269002AF8D07F22E6E78021A4
:1021B00049058A42E3D12269002AF6D03F22DDE7B1
:1021C00013882021013B9BB2138020000097039BC2
:1021D0000022FFF703FF002813D1A2682368110033
:1021E00080225201914207D12269002A04D15B6A00
:1021F00033402B800235C3E75B6A33402B700135D7
:10220000BEE70320C8E7C046FF01000073B5002603
:102210000400C666FEF738FA236805001B681B0732
:1022200017D423681B685B070AD580210F4B002257
:102230000093C9032B002000FFF7D0FE002813D124
:1022400022002023002069326834137053702070FC
:102250000BE08021054B320000938903030020002E
:10226000FFF7BCFE0028DCD0032076BDFFFFFF0196
:1022700070B5041E01D1012070BD050069352B78B1
:10228000DBB2002B04D1020068321370FFF704FDAB
:102290002423012122682B7013688B431360636A27
:1022A000002B02D02000FFF731FE2000FFF7F6FCE4
:1022B0000128E0D0236808495A6820000A402A21F2
:1022C0005A609A688A439A60012219680A431A6020
:1022D000FFF79CFFD0E7C046FFB7FFFFF0B5002433
:1022E0000A25260085B0114F03900291390002980B
:1022F000FDF79AFF6A463030C3B201931279039B0F
:1023000002919A5538000A21FDF708FF019B07004A
:10231000302B01D1002C06D001360134013D002DB7
:10232000E4D105B0F0BD00242600F7E700CA9A3BCF
:1023300070B50F258218904200D170BD03781C093A
:10234000260030362B40392E0AD937340C701C0049
:102350003034392C06D937334B7002310130EAE77B
:102360000E70F4E74C70F8E7F7B503780191302B65
:1023700004D120264378B343582B10D000232026C5
:102380001C000A270125025D002A31D1019A136041
:102390002A0001340B2C29D0012AF4D126E0002494
:1023A0000225425D002A1BD01100B1438C46412119
:1023B000494213008C446146303BDFB2052901D904
:1023C000092F0DD82401092F06D917001300413F0A
:1023D000573B052F00D820330135E4180B2DE0D1F1
:1023E000435D002B10D10122019B1C601000FEBD3B
:1023F0001100B1434B2903D1002C09D09B02C5E742
:102400004D2905D1002C01D10022EFE71B05BDE7C6
:10241000302149428C46944461460929F4D87B43D3
:10242000303BD3180022B4E70100002210B58B5CCA
:10243000002B04D164330348FFF702FE10BD0132C4
:1024400092B2F4E70001002007B56B46D91D087071
:102450000648030069331A78A02A01D1803A1A701D
:1024600064230122FFF7ECFD0EBDC04600010020F1
:10247000F7B5050016001F2922D81D4B8900C31887
:10248000CC180193236893421AD0013328D003005B
:102490000400184F80333A1A9C4212D17E50FEF746
:1024A00095FD0023144815490360019B2E004360ED
:1024B00001238360FEF71EFEA64208D1FEF7A4FDAD
:1024C000F7BD0B482018006810510434E4E7084AAF
:1024D0007B1BB11802209A59FEF7DAFD0436EBE7B0
:1024E000FEF774FD320021000220FEF7D1FDE5E782
:1024F00000FF010880000020300000203C00002088
:10250000F8B505007F2925D8802B23D8C818802846
:1025100002DD80235B1A9BB228002C001849803012
:102520006E181849491B844215D10021154F88B2F5
:10253000834216D8FEF74AFD00231348134903606F
:102540000133466083602E00FEF7D4FDA6420CD115
:10255000FEF75AFDF8BD0A4FE7193F680F510434E2
:10256000E1E7505C78540131E1E7064B044A5B1B1C
:10257000B11802209A59FEF78BFD0436E6E7C046F3
:1025800000FF010880000020300000203C000020F7
:1025900000231F2904D8034B8900C01809180B68B1
:1025A0001800704700FF0108030000207F2904D8AD
:1025B000024A9B1859180878C0B2704700FF0108FA
:1025C00010B5FEF703FD034B034A9A61FEF71CFDAD
:1025D00010BDC04600200240002F030030B500258A
:1025E000040085B00095FEF7F1FC09486946001B20
:1025F000C009039001A802940195FEF77BFDA84253
:1026000001D001230093FEF7FFFC009805B030BD18
:1026100000FF0108F0B5140087B002900491FEF7A6
:10262000D5FC049BA4001B190593029B029C5B42F2
:102630000193049B029A9E1A059B3619B34201D856
:1026400000251CE02300250040330393019B290053
:10265000F7187A590220FEF71BFD039B04359D42B3
:10266000F4D123683A5993420ED10434AC42F8D1E4
:102670000025019B039C403B0193002DD9D0FEF720
:10268000C3FC280007B0F0BD0225F2E710B594B0F6
:102690001422002101A801F0DDF92422002107A85D
:1026A00001F0D8F98022234B5205996B22480A4346
:1026B0009A630268214901241140802212010A43D1
:1026C00002609A6B1E4906A80A409A630223069389
:1026D0001093802310221B03129380230A9200225E
:1026E0001B04099411921393FEF740FE002800D0BA
:1026F000FEE70F230390019304900C3B059021000B
:1027000001A80293FFF7E2F8041E00D0FEE7FFF7EE
:1027100095F9FA218900FDF701FDFEF703FB04207E
:10272000FEF71AFB0120220021004042FEF7C6FA04
:1027300014B010BD0010024000700040FFE7FFFF22
:10274000FFFFFFEFF0B589B000AFFDF785FFFFF7A2
:102750009DFF00F0B3FF0021080000F025FF0221DB
:10276000354C0026E26A01250A43E262E36A0C2244
:102770000B407B607B680623B918FB602F48033B46
:10278000BB617E613D61FEF7F1FC2A0006212B480A
:10279000FEF7ACFD0C220323B91828483B617E618B
:1027A000FD60FEF7E3FC6420FDF774FF300000F0ED
:1027B00033FF061E2DD1FFF703FFE12320495B0203
:1027C0004B600C2330004B618E60CE600E618E61D9
:1027D00000F02EFF8021226B49010A432263236B04
:1027E00018480B40BB60BB68174B06618360082329
:1027F000C360164B466103600223FF33838086610A
:102800000562FEF7FDFA002800D0FEE700F094FB19
:10281000FEE70F4A0F4913680B40802189058B4260
:10282000F6D10D4B0D491B680B600D4912680B600A
:1028300082F308889847EBE700100240000400503C
:102840000001002070010020211000000030024033
:10285000005000080000FE2F0450000894010020E2
:102860009801002010B50F4C2000FEF7F5F8642108
:102870002000FEF71DF92000FEF778F90A4B04004E
:102880001B880A4858430A4B1988FDF747FC83B256
:10289000A0B258430749FDF741FC80B2400080B226
:1028A00010BDC046240200207800F81FB80B0000BD
:1028B00062000020FF0F000010B5FFF7D3FF104AA1
:1028C0006423904210D895220E4B5200C3189BB23D
:1028D00093420BD80C4B9621C018632349005843F0
:1028E000FDF7A6FC0130C3B2180010BD074BC7228C
:1028F000C018002380B282425B41DBB2F4E7C046DD
:102900000F0E00001BF3FFFF1CF3FFFFE3F3FFFFBD
:1029100030B591B040220021684601F09BF849484B
:10292000FFF782FD4848FFF77FFD4848FFF77CFD31
:1029300040220021684601F08DF8454C0822694686
:102940002000FFF7F5FC6846FFF76EFD414D2800BB
:10295000FFF76AFD4048FFF767FD40220021684607
:1029600001F078F82000082269460830FFF7E0FC03
:102970006846FFF759FD2800FFF756FD3748FFF777
:1029800053FD40220021684601F064F82000102227
:1029900069461030FFF7CCFC6846FFF745FD28007C
:1029A000FFF742FD00218020FFF7F2FD041E00D159
:1029B0003C342B48FFF738FD40220021684601F0E7
:1029C00049F821006846FFF789FC6846FFF72CFDAF
:1029D0002448FFF729FD02218020FFF7D9FD224B73
:1029E000040098422CD0431E072B00D902241F4814
:1029F000FFF71AFD40220021684601F02BF8210064
:102A00006846FFF76BFC6846FFF70EFD2800FFF7EE
:102A10000BFDFFF751FF04001548FFF705FD4022AD
:102A20000021684601F016F821006846FFF756FCC1
:102A30006846FFF7F9FC0F48FFF7F6FC11B030BD10
:102A40000024D4E78F3B00080C400008223E000819
:102A500041000020213C0008313E00083D3E0008B6
:102A6000493E00085B3E0008C78AA900663E000890
:102A7000733E00087F3E0008F0B591B0402200216F
:102A80000500684600F0E6FF01218020FFF780FD89
:102A90000400002D02D02800FFF7C6FC2748FFF7EE
:102AA000C3FC40220021684600F0D4FF210E684696
:102AB000FFF714FC6846FFF7B7FC214F3800FFF71B
:102AC000B3FC40220021684600F0C4FF210CC9B2CB
:102AD0006846FFF703FC6846FFF7A6FC194E300076
:102AE000FFF7A2FC002D02D02800FFF79DFCFF2578
:102AF0001548FFF799FC40220021684600F0AAFF24
:102B0000210A29406846FFF7E9FB6846FFF78CFC7D
:102B10003800FFF789FC40220021684600F09AFF48
:102B2000210068462940FFF7D9FB6846FFF77CFC87
:102B30003000FFF779FC11B0F0BDC046F73D00084A
:102B40000B3E0008213C00080D3E0008F0B5A3B084
:102B500040220021040002A800F07CFF4022002156
:102B600012A800F077FF8B48002C05D08A48012C72
:102B700002D0022C02D18948FFF756FC00264022E1
:102B8000002102A800F066FF4022002112A800F0F8
:102B900061FF350008211020814F3B689A690A4384
:102BA0009A619A6902439A6102AA1962AB18019369
:102BB0000122142301993800FFF7A8FA03280AD14B
:102BC000B54208D9AA1B02ABF11892B214233800FF
:102BD000FFF736FA2E0002AB5B5D7F2B11D100268A
:102BE0006B3B012201993800FFF72AFA02AB5E55D0
:102BF000B54206D002AAAB18013D013BEDB21E70F2
:102C00002E0002AB5B5D1A00303A092A0CD9202253
:102C1000190091430A00413A052A05D97F2B03D0B8
:102C20000D2B01D00A2B1DD13F2D01D80135EDB25E
:102C30006B1E02AAD25C0D2AACD1002202A9CA5492
:102C40001025012C03D9A51E6B425D416D0102A820
:102C5000FDF7E6FCC0B2854200D08FE000222021C3
:102C6000160010E0002302AA5355E1E702AB9B5C7B
:102C700018003038092803D98B43413B052B01D874
:102C80000136F6B20132D3B29D42EFD8B54200D040
:102C900074E04448002C05D04348012C02D0022C9B
:102CA00002D14248FFF7C0FB02A8FFF7BDFB404836
:102CB000FFF7BAFB3F4D00212F007608CBB2B3429D
:102CC00014D300213B4C080020232200FFF718FCFE
:102CD0000021202308002200FFF712FC00212023FE
:102CE00022000800FFF70CFC23B0F0BD4B0002AA45
:102CF000D25C02A81B1858781300303BDBB2092BBA
:102D000005D91300613B052B13D8573AD3B2020003
:102D1000303AD2B2092A05D90200613A052A13D8FD
:102D20005738C2B2002C1AD11B01D218CA55013132
:102D3000C4E741235B429C46944413006246052A43
:102D4000E5D8373BDBB2E2E7412252429446844465
:102D5000020060460528E5D8373AD2B2E2E7012CF6
:102D600005D114481B014018D2180272DFE7022C6B
:102D7000DDD11B016818D2180274D8E70E48002C68
:102D800005D00E48012C02D0022CADD10C48FFF723
:102D90004BFBA9E78D3A0008BE3A0008EC3A000860
:102DA000000100201A3B0008333B0008493B0008A3
:102DB0001F3C0008410000205F3B0008923B0008D8
:102DC000C23B000800B58BB02022002102A800F011
:102DD00041FE00231D480193FFF726FB01A800F0E8
:102DE00005FD002821D1FA208000FDF753FC18488A
:102DF000FFF71AFB1748FFF717FB1748FFF714FBFD
:102E0000019902A8FFF76AFA1448FFF70DFB02A820
:102E1000FFF70AFB1248FFF707FB1248FFF704FB16
:102E20000122114B1A700BB000BD052803D10F48C9
:102E3000FFF7FAFAF7E7042801D10D48F8E702286E
:102E400001D10C48F4E70C48F2E7C046883E000880
:102E5000D63E0008143F00089C0100201B3F0008DC
:102E6000243F00082D3F000840000020693F000873
:102E7000AD3F0008CE3F0008E43F0008F0B5102445
:102E800005000F00160087B000930CAB1B882200D2
:102E9000002102A8019300F0DDFD691C02A8FFF7E4
:102EA0001DFA02A8FFF7C0FA2048FFF7BDFA22007A
:102EB000002102A800F0CEFD390002A8FFF70EFAAB
:102EC00002A8FFF7B1FA1A4D2800FFF7ADFA220069
:102ED000002102A800F0BEFD310002A8FFF7FEF9B4
:102EE00002A8FFF7A1FA2800FFF79EFA22000021AE
:102EF00002A800F0AFFD009902A8FFF7EFF902A8C1
:102F0000FFF792FA2800FFF78FFA2200002102A8AB
:102F100000F0A0FD019902A8FFF7E0F902A8FFF771
:102F200083FA0448FFF780FA07B0F0BD833E00083B
:102F3000853E0008213C0008F0B508241023A9B004
:102F400002AF381940220021C01800F083FD502341
:102F5000381940220021C01800F07CFD0024A1B2E5
:102F60000020FFF721FBA44BE0540134202CF6D1C4
:102F7000FFF7CEFCA148FFF77FFDA148FFF754FA09
:102F8000A048FFF751FA082110209F4C23689A6946
:102F90000A439A619A6902439A6119627B181D1863
:102FA000012301225B4229002000FFF7AFF82B78B4
:102FB000722B00D095E0954C50252000FFF734FA95
:102FC0009348FFF731FA08221600BB1859198A48AE
:102FD000FFF7AEF9BB195819FFF726FA2000FFF7E3
:102FE00023FA8C48FFF720FA8348BB19591932009D
:102FF0008019FFF79DF9BB195819FFF715FA200042
:10300000FFF712FA8448FFF70FFA7B48BB195919EA
:1030100010221030FFF78CF9BB195819FFF704FA8A
:103020002000FFF701FA00218020FFF7B1FA051E0A
:1030300000D13C357948FFF7F7F908235026F818F6
:1030400040220021801900F005FD29003500483E8E
:10305000BB195819FFF742F9BB195819FFF7E4F9E2
:103060006F48FFF7E1F902218020FFF791FA6D4BDD
:103070000500984233D0431E072B00D902256A4829
:10308000FFF7D2F908235026F818402200218019B2
:1030900000F0E0FC29003500483EBB195819FFF745
:1030A0001DF9BB195819FFF7BFF92000FFF7BCF94C
:1030B000FFF702FC04005D48FFF7B6F9BB19402298
:1030C0000021581900F0C6FCBB1958192100FFF760
:1030D00005F9BB195819FFF7A7F9554851E700251D
:1030E000CDE7692B00D0B1E05248FFF79DF94022AF
:1030F0000021280000F0AEFC0820502300253818DD
:1031000040220021C01800F0A5FC2C00082110204E
:103110003D4B1B689A690A439A619A6902439A6116
:1031200019627B181E1833197B6001221423311990
:103130003548FEF7EBFF032809D1AC4207D9621BE3
:10314000711992B214233048FEF77AFF2500335DDF
:103150007F2B0FD100256B3B012231192A48FEF746
:103160006FFF3555AC4205D03319013C013BE4B249
:103170001D702500335D1A00303A092A05D97F2BCE
:1031800003D00D2B01D00A2B17D13F2C01D80134CD
:10319000E4B2631EF25C0D2AB8D10024F4540C236F
:1031A0003000F918FC60FFF7DFF8A04200D1D8E04A
:1031B000F968042904D82048E3E600233355E8E7FA
:1031C0001E4B994201D91E48DBE608265025BB1943
:1031D0005819FFF783F81B48FFF726F9BB19581950
:1031E000FFF722F91848FFF71FF9FA68210080203D
:1031F000FFF73EF9C7E6C04641000020F23B000859
:10320000F53B00088F3B000800010020213C00082E
:10321000243E0008333E00083F3E00084B3E0008B5
:103220005B3E0008C78AA900683E0008753E00089A
:103230001E3C0008243C00085F3C0008C0A80000B9
:103240009D3C0008DC3C0008F83C0008622B00D0E4
:1032500089E0A848FFF7E8F840220021280000F0A4
:10326000F9FB082050230025381840220021C018FF
:1032700000F0F0FB2C00082110209F4B1B689A697E
:103280000A439A619A6902439A6119627B181E186F
:1032900033197B600122142331199748FEF736FF5A
:1032A000032809D1AC4207D9621B711992B21423C9
:1032B0009148FEF7C5FE2500335D7F2B0FD1002519
:1032C0006B3B012231198C48FEF7BAFE3555AC42F2
:1032D00005D03319013C013BE4B21D702500335D7C
:1032E0001A00303A092A05D97F2B03D00D2B01D0C3
:1032F0000A2B33D13F2C01D80134E4B2621EB35CF7
:103300000D2BB8D10023B354FB600C33F9183000F7
:10331000FFF72AF8002824D0FA68784CA24204D09B
:10332000531E7748072B00D92BE602218020FFF798
:103330009FF8FB68A34201D10023FB6008255024BD
:103340007B191819F968FEF7C9FF6E48FFF76CF88A
:103350007B191819FFF768F86B4812E600233355FC
:10336000CCE76A480DE60020642B05D00120612BD4
:1033700002D06B2B03D10220FFF7E8FB03E6682B9A
:103380000AD10821102023689A690A439A619A6930
:1033900002439A611962E1E5752B25D108211020BD
:1033A00023689A690A439A619A6902439A61196289
:1033B000FFF708FD564B1A78002A00D1E3E5FA2002
:1033C000002280001A70FDF765F95248FFF72CF8CB
:1033D000514B524A1B681360514A1360514A12689C
:1033E00082F308889847CEE56C2B5FD14E4B4F484F
:1033F0004F4902005A434F4D1C685219944202D360
:1034000004338B42F5D14C48FFF70EF8002C01D164
:103410004A48B6E5FA25AD00AC4211D80025484B24
:10342000A8B2E918C9000A684B684E681B0CB6B20E
:10343000A1B200960135FFF721FDAC42EFD1A2E524
:1034400020002900FCF7F0FE3D4B0E00CC180023B5
:10345000E4007B60226863686168B0B289B238605A
:10346000B8880091FA211B0C8900FFF707FD7B68E3
:10347000083401337B60334B9C42EBD1FA263B6826
:10348000314CED1AADB2B600B54200D17BE5231F39
:103490001A6823682168280089B200911B0C31004A
:1034A0000135FFF7EBFC0834ADB2EDE7652B00D03A
:1034B00069E50024BC60FDF789FD244B08260C2536
:1034C0003B614023B91978197B61FC60FDF712FE5E
:1034D000FDF79AFDFDF77AFD134BB9193B61012306
:1034E00078197B61FC60FDF705FEFDF78DFD18483E
:1034F00047E5C046203D000800010020C78AA9001A
:103500006D3D0008563D00081F3C0008053D0008C1
:1035100040000020A63D000804500008940100204F
:1035200098010020005000080000080890D0030017
:103530002800080840428FFB213C0008D53D0008C8
:10354000803B000140FB010804DC010800DC0108AD
:10355000E23D00080D488546002103E00C4B5B5816
:10356000435004310B480C4B42189A42F6D30B4A95
:1035700002E0002313600432094B9A42F9D300F0B1
:1035800007F900F043FAFFF7DDF8FEE700500020EE
:1035900074430008000000201400002014000020E4
:1035A0008C060020FEE7000030B587B0002808D167
:1035B0000125164AD46A2C43D462D36A2B40009367
:1035C000009B8023DB0001930324022304940393D4
:1035D000002908D198400E4B0291C05801A9FDF76F
:1035E000C5FD07B030BD0129FBD10A4B8000029315
:1035F000074B01A9C058FDF7B9FD002221000720A3
:10360000FDF75CFB0720FDF783FBEAE700100240B3
:103610000000002000002110802110B5034B800025
:10362000C900C058FDF75CFE10BDC0460000002078
:1036300070B50D0088B0002814D101221B4BD96A47
:103640001143D962D96A114001910199D96A114394
:10365000D962D96A0A400292029A8022596BD20139
:103660000A435A63802304269B000393FF3BFF3BDE
:10367000049301330693023B05930D4B8400E058FD
:1036800003A90796FDF772FD8023DB000393094B26
:1036900003A9E0580796FDF769FD074B2800E3589A
:1036A0002B60FEF7E5FD08B070BDC046001002407B
:1036B00008000020040000200C00002070B58026C7
:1036C000274C284D284BB60023606B6B20003343FA
:1036D0006B63FDF76DF96B6A244A1E436E626B6A79
:1036E000802613406B62C0231B0663600723E363DD
:1036F000063B2361C2230025FF33A362BE3B760154
:10370000FF3B200063612564A560E560256265627A
:10371000E56225636663A561A563E561FDF772F85F
:1037200029002000FDF77AFA114D124B29002000E4
:103730002B606E60FDF71EFA2000FDF78DF9642105
:103740002000FDF7B5F92000FDF710FA0A4B29001B
:1037500018800A4B20006E602B60FDF70BFA70BDDD
:10376000240200200010024000240140FFFDFFFF62
:103770001C02002000000244620000200001002022
:103780007047FEE77047704710B5FCF775FF10BD36
:103790008022104B520019680A431A60DA680E49F9
:1037A0000A40DA601A680D490A4001211A609A68D5
:1037B0008A439A601A680A490A401A60DA68094915
:1037C0000A40DA6000221A618022074B12059A60D3
:1037D0007047C046001002400C40FF88F6FFF6FE1E
:1037E000FFFFFBFFFFFF02FF00ED00E0F0B57E4BA7
:1037F0008FB0029300230600039300270197B6E0E1
:10380000412B42D0612B40D0182B00D0C9E0FA23C5
:1038100001229B0029007548FEF778FC002800D0A3
:10382000BFE02B780224182B00D0BAE001E08024FE
:10383000E40004AB03336E4D1B782B707F2C27D92B
:10384000FA23221D9B006B496848FEF75FFC0028A5
:1038500020D1EB78AA78DB43DBB29A421DD16649CE
:10386000664B0D5D1B5D2D02220065485D19FDF75D
:1038700001FB854211D15E4A9378BB4229D01520C5
:10388000FEF7E2FD0023019371E002200024D0E75F
:10389000002811D0022800D1A0E0039A019B944691
:1038A0006344019343200A2B03D91820FEF7CCFD73
:1038B0001820FEF7C9FD5AE0002C06D0022CDAD100
:1038C0000620FEF7C1FD02250DE00620FEF7BCFD37
:1038D00093E7002F00D06DE01379002B63D1062011
:1038E000FEF7B2FD3D0028000FB0F0BDC854013313
:1038F000D0180079EC18002801D0802BF6D10022D6
:10390000CA54130006A8E25C202A01D0202B4ED115
:10391000002505A9C554FEF727FD3A4B32689A42A7
:1039200013D904AB9C1C1823237080232F4D5B03F9
:10393000012221002800FEF783FB802328005B037F
:1039400001222100FEF77CFB05252748FEF746FEF5
:10395000059B06203360FEF777FD4320FEF774FDDC
:103960000137FFB2002DBED101230195039304ABB3
:10397000DD1CFA2301229B0029001C48FEF7C6FB30
:10398000002800D086E72B780400042B00D150E7F4
:1039900000D935E78034012B00D14AE7022B00D152
:1039A00045E7012072E73B00551D1749A0E7C254C7
:1039B0000133A8E7A20810490298FEF72BFE051E66
:1039C00004D1029B06201B190293C7E71820FEF7BB
:1039D0003BFD1820FEF738FD0425C1E71820FEF74F
:1039E00033FD18206DE7C04600500008000100209C
:1039F0008402002086020020880200208902002024
:103A000070010020013000009C01002070B50026EC
:103A10000C4D0D4C641BA410A64209D1002600F0E9
:103A200021F80A4D0A4C641BA410A64205D170BDB2
:103A3000B300EB5898470136EEE7B300EB589847D0
:103A40000136F2E76C4300086C4300086C43000841
:103A50007043000803001218934200D17047197098
:103A60000133F9E7F8B5C046F8BC08BC9E4670477C
:0C3A7000F8B5C046F8BC08BC9E46704784
:103A7C000104020800101010041010100210101095
:103A8C00080D0A506C6561736520696E7075742041
:103A9C00746865206E65772044657669636520459A
:103AAC005549207769746820456E7465720D0A0A51
:103ABC000D000D0A506C6561736520696E7075742C
:103ACC0020746865206E65772041707020455549DB
:103ADC00207769746820456E7465720D0A0A0D00B2
:103AEC000D0A506C6561736520696E707574207475
:103AFC006865206E657720417070204B6579207762
:103B0C0069746820456E7465720D0A0A0D000D0A01
:103B1C00546865206E657720446576696365204539
:103B2C00554920697320000D0A546865206E65772D
:103B3C00204170702045554920697320000D0A54AE
:103B4C006865206E657720417070204B657920691F
:103B5C007320000D0A5B4572726F725D54686520AC
:103B6C004465766963652045554920796F752065F4
:103B7C006E746572656420697320696E76616C6918
:103B8C00640D0A0A0D000D0A5B4572726F725D546A
:103B9C006865204170702045554920796F75206506
:103BAC006E746572656420697320696E76616C69E8
:103BBC00640D0A0A0D000D0A5B4572726F725D543A
:103BCC00686520417070204B657920796F75206590
:103BDC006E746572656420697320696E76616C69B8
:103BEC00640D0A0A0D002320002320506C656173BC
:103BFC006520456E74657220796F757220636F6DE8
:103C0C006D616E64207769746820456E7465720A04
:103C1C000D00250D0A0D0A000D0A506C65617365C7
:103C2C0020696E70757420746865206E65772064E9
:103C3C006174612075706C6F616420696E7465725B
:103C4C0076616C207769746820456E7465720D0A14
:103C5C000A0D000D0A5B4572726F725D5468652027
:103C6C006E756D626572206E6565647320746F206D
:103C7C00626520616E20696E74656765722067727B
:103C8C006561746572207468616E20350D0A0D0AC9
:103C9C00000D0A5B4572726F725D546865206E751B
:103CAC006D626572206E6565647320746F20626549
:103CBC0020616E20696E7465676572206C65737324
:103CCC00207468616E2034333230300D0A0D0A00D6
:103CDC000D0A4E6F772074686520646174612069E9
:103CEC006E74657276616C2069732000206D696E4C
:103CFC00757465730D0A0D0A000D0A5B4572726FBF
:103D0C00725D496E76616C696420496E7075740DD4
:103D1C000A0D0A000D0A506C6561736520696E709E
:103D2C00757420746865206E6577207375622062E7
:103D3C00616E64206E756D6265722077697468209F
:103D4C00456E7465720D0A0A0D000D0A4E6F7720D0
:103D5C00746865207375622062616E6420697320DB
:103D6C00000D0A5B4572726F725D5468652062616A
:103D7C006E64206E6565647320746F2062652061CB
:103D8C006E20696E74656765722066726F6D203186
:103D9C0020746F20380D0A0D0A0052656365697630
:103DAC006564206669726D776172652C206E6F7721
:103DBC00207265626F6F7420616E6420757067721B
:103DCC006164696E672E0D0A004E6F6E65206C6F14
:103DDC00670D0A0D0A000D0A4572617365206C6F40
:103DEC006720646F6E650D0A0D0A00486172647776
:103DFC006172652076657273696F6E3A2076002E5B
:103E0C0000536F667477617265206669726D7761B5
:103E1C0072653A20760023204465766963652045F7
:103E2C0055493A20002320417070204555493A20CD
:103E3C00002320417070204B65793A2000232044E8
:103E4C0061746120696E74657276616C3A20002031
:103E5C006D696E757465730D0A00232053756220AD
:103E6C0062616E643A200023204261747465727939
:103E7C003A2000250D0A002F002C20000D0A576156
:103E8C00697474696E6720666F7220746865206E41
:103E9C006577206669726D776172652066726F6DE9
:103EAC00207468652073657269616C20746F6F6C27
:103EBC002E2E2E2870726573732027612720746F45
:103ECC002061626F7274290D0A000D0A0D0A2D2DE6
:103EDC002D2D2D2D2D2D2D2D2D2D2D2D2D2D2D2D06
:103EEC002D2D2D2D2D2D2D2D2D2D2D2D2D2D2D2DF6
:103EFC002D2D2D2D2D2D2D2D2D2D2D2D2D2D2D2DE6
:103F0C002D2D2D2D2D0D0A004E616D653A20000DC5
:103F1C000A53697A653A20002042797465730D0A58
:103F2C00002D2D2D2D2D2D2D2D2D2D2D2D2D2D2DE2
:103F3C002D2D2D2D2D2D2D2D2D2D2D2D2D2D2D2DA5
:103F4C002D2D2D2D2D2D2D2D2D2D2D2D2D2D2D2D95
:103F5C002D2D2D2D2D2D2D2D0D0A0D0A000D0A5B4D
:103F6C004572726F725D54686520696D616765207A
:103F7C0073697A6520697320686967686572207453
:103F8C0068616E2074686520616C6C6F7765642065
:103F9C007370616365206D656D6F72790D0A0D0A22
:103FAC00000D0A5B4572726F725D566572696669C7
:103FBC00636174696F6E206661696C65640D0A0DCE
:103FCC000A000D0A41626F72746564206279207573
:103FDC007365720D0A0D0A000D0A5B4572726F72E1
:103FEC005D4661696C656420746F207265636569F8
:103FFC007665207468652066696C650D0A0D0A008B
:10400C00232D2D2D2D2D2D2D2D2D2D2D2D2D2D2DDE
:10401C002D2D2D2D2D2D2D2D2D2D2D2D2D2D2D2DC4
:10402C002D2D2D2D2D2D2D2D2D2D2D2D2D2D2D2DB4
:10403C002D2D2D2D2D2D2D0D0A23205F5F5F5F2043
:10404C002020202020202020202020202020202064
:10405C0020202020202020202020205F5F5F5F2058
:10406C00202020205F20202020205F5F5F5F0D0A32
:10407C00232F205F5F5F7C2020205F5F5F20205F0D
:10408C00205F5F2020205F5F5F2020205F5F5F202C
:10409C00202F205F5F5F7C2020202F205C202020A1
:1040AC007C20205F205C0D0A235C5F5F5F205C201E
:1040BC00202F205F205C7C20275F205C202F205F3E
:1040CC005F7C202F205F205C7C207C202020202007
:1040DC00202F205F205C20207C207C5F29207C0D01
:1040EC000A23205F5F5F29207C7C20205F5F2F7C70
:1040FC00207C207C207C5C5F5F205C7C20205F5FD0
:10410C002F7C207C5F5F5F20202F205F5F5F205C17
:10411C00207C20205F5F2F0D0A237C5F5F5F5F2F69
:10412C0020205C5F5F5F7C7C5F7C207C5F7C7C5FA5
:10413C005F5F2F205C5F5F5F7C205C5F5F5F5F7CFD
:10414C002F5F2F2020205C5F5C7C5F7C0D0A230D91
:10415C000A232057656C636F6D6520746F2053655F
:10416C006E736543415020636F6E736F6C65206393
:10417C006F6D6D616E642D6C696E6520746F6F6C04
:10418C000D0A2320596F752063616E206368616E80
:10419C006765207468652064657669636520636F64
:1041AC006E66696775726174696F6E2062792063DF
:1041BC006F6D6D616E64730D0A2320436F6D6D61BD
:1041CC006E64206465736372697074696F6E0D0A36
:1041DC0023205B725D2052656164207468652063E6
:1041EC00757272656E742064657669636520636FA1
:1041FC006E66696775726174696F6E0D0A23205B58
:10420C00695D205365742074686520646174612055
:10421C0075706461746520696E74657276616C206A
:10422C00696E206D696E757465730D0A23205B646D
:10423C005D205365742074686520446576696365F8
:10424C00204555490D0A23205B615D205365742080
:10425C0074686520417070204555490D0A23205B18
:10426C006B5D205365742074686520417070204B21
:10427C0065790D0A23205B625D2053657420746898
:10428C006520726567696F6E616C20737562206260
:10429C00616E645B312D385D0D0A23205B755D20EA
:1042AC005570677261646520746865206669726D0B
:1042BC00776172650D0A23205B685D205265747509
:1042CC00726E20746F20636F6E736F6C6520636504
:1042DC006E7465720D0A232D2D2D2D2D2D2D2D2D4A
:1042EC002D2D2D2D2D2D2D2D2D2D2D2D2D2D2D2DF2
:1042FC002D2D2D2D2D2D2D2D2D2D2D2D2D2D2D2DE2
:10430C002D2D2D2D2D2D2D2D2D2D2D2D2D0D0A231E
:10431C002044657669636520547970653A204C6F4A
:10432C00526157414E2055533931352F4155393152
:10433C00350D0A000000000000000000010203041B
:10434C000607080900000000010203040304060824
:08435C000C10182030000000D5
:08436400E4C0FF7F010000002E
:04436C00E90000085C
:04437000C100000880
:1043740000000050000000500000005000380140D0
:0443840080841E0013
:040000050800355565
:00000001FF
