:020000040800F2
:105000000050002099DA00089FAD0008E9DA000896
:105010000000000000000000000000000000000090
:10502000000000000000000000000000E9DA0008B5
:105030000000000000000000E9DA0008C1B9000823
:10504000E9DA0008E9DA000889CF0008E9DA00089F
:10505000E9DA000869C600087DC6000891C60008A4
:10506000E9DA0008E9DA0008E9DA0008E9DA000814
:10507000E9DA0008E9DA0008E9DA0008E9DA000804
:10508000E9DA0008E9DA0008E9DA000800000000BF
:10509000E9DA0008E9DA0008E9DA0008E9DA0008E4
:1050A000E9DA0008E9DA0008E9DA000879DA000844
:1050B000E9DA000889DA000800000000E9DA0008EF
:1050C00010B5064C2378002B07D1054B002B02D0DE
:1050D000044800E000BF0123237010BDF000002051
:1050E00000000000D03E0108044B10B5002B03D097
:1050F0000349044800E000BF10BDC04600000000A6
:10510000F4000020D03E010802B47146490849006D
:10511000095C49008E4402BC7047C04603B4714626
:10512000490840004900095A49008E4403BC7047B1
:10513000002243088B4274D303098B425FD3030AD6
:105140008B4244D3030B8B4228D3030C8B420DD3E9
:10515000FF22090212BA030C8B4202D31212090277
:1051600065D0030B8B4219D300E0090AC30B8B42B5
:1051700001D3CB03C01A5241830B8B4201D38B0363
:10518000C01A5241430B8B4201D34B03C01A524108
:10519000030B8B4201D30B03C01A5241C30A8B424B
:1051A00001D3CB02C01A5241830A8B4201D38B0236
:1051B000C01A5241430A8B4201D34B02C01A5241DA
:1051C000030A8B4201D30B02C01A5241CDD2C3094C
:1051D0008B4201D3CB01C01A524183098B4201D3C8
:1051E0008B01C01A524143098B4201D34B01C01AB3
:1051F000524103098B4201D30B01C01A5241C3082B
:105200008B4201D3CB00C01A524183088B4201D399
:105210008B00C01A524143088B4201D34B00C01A85
:105220005241411A00D20146524110467047FFE7F1
:1052300001B5002000F0F0F802BDC0460029F7D00B
:1052400076E7704703460B437FD4002243088B4226
:1052500074D303098B425FD3030A8B4244D3030BFD
:105260008B4228D3030C8B420DD3FF22090212BAC2
:10527000030C8B4202D31212090265D0030B8B423E
:1052800019D300E0090AC30B8B4201D3CB03C01A28
:105290005241830B8B4201D38B03C01A5241430B03
:1052A0008B4201D34B03C01A5241030B8B4201D3F3
:1052B0000B03C01A5241C30A8B4201D3CB02C01A5E
:1052C0005241830A8B4201D38B02C01A5241430AD6
:1052D0008B4201D34B02C01A5241030A8B4201D3C5
:1052E0000B02C01A5241CDD2C3098B4201D3CB016C
:1052F000C01A524183098B4201D38B01C01A52411B
:1053000043098B4201D34B01C01A524103098B421E
:1053100001D30B01C01A5241C3088B4201D3CB0009
:10532000C01A524183088B4201D38B00C01A5241EC
:1053300043088B4201D34B00C01A5241411A00D29C
:1053400001465241104670475DE0CA0F00D0494205
:10535000031000D34042534000229C4603098B4275
:105360002DD3030A8B4212D3FC22890112BA030AFD
:105370008B420CD3890192118B4208D3890192117F
:105380008B4204D389013AD0921100E08909C30904
:105390008B4201D3CB01C01A524183098B4201D306
:1053A0008B01C01A524143098B4201D34B01C01AF1
:1053B000524103098B4201D30B01C01A5241C30869
:1053C0008B4201D3CB00C01A524183088B4201D3D8
:1053D0008B00C01A5241D9D243088B4201D34B00F3
:1053E000C01A5241411A00D20146634652415B1035
:1053F000104601D34042002B00D549427047634616
:105400005B1000D3404201B5002000F005F802BD5A
:105410000029F8D016E770477047C0468446101C34
:1054200062468C46191C634600E0C0461FB501F079
:10543000F5F9002801D40021C8421FBD10B501F0C4
:105440004DF94042013010BD10B501F0E7F90028D8
:1054500001DB002010BD012010BDC04610B501F0D9
:10546000DDF9002801DD002010BD012010BDC0467F
:1054700010B501F06FF9002801DC002010BD0120FB
:1054800010BDC04610B501F065F9002801DA002012
:1054900010BD012010BDC046002B11D1002A0FD134
:1054A000002900D1002802D00021C943081C07B4FC
:1054B000024802A14018029003BDC0465DFFFFFFF5
:1054C00003B4684601B5029800F024F8019B9E469B
:1054D00002B00CBC7047C04670B500220C4B0400F3
:1054E0000D00FFF7CFFF002804D12000290001F0B4
:1054F000B7FF70BD064B00222000290001F068FCB8
:1055000001F0AEFF80231B069C466044F1E7C046D5
:105510000000E041F0B54F464646D646C0B504000F
:1055200082B00D00914698468B422FD82CD0414630
:10553000484602F0A7F829000600200002F0A2F871
:10554000331A9C46203B9A4600D576E04B4652469D
:1055500093401F004B46624693401E00AF4228D83E
:1055600025D05346A41BBD41002B00DA7BE000226E
:10557000002300920193012352469340019301239B
:1055800062469340009318E08242D0D90022002363
:10559000009201930A9B002B01D01C605D60009873
:1055A000019902B01CBC90469946A246F0BDA342A8
:1055B000D7D900220023009201936346002BE9D043
:1055C000FB079846414672080A437B0866460EE090
:1055D000AB4201D1A2420CD8A41A9D41012024194A
:1055E0006D410021013E24184D41002E06D0AB42F2
:1055F000EED9013E24196D41002EF8D10098019991
:10560000534600196941002B23DB2B005246D3403F
:105610002A006446E2401C0053461500002B2DDB97
:1056200026005746BE40330026006746BE40320083
:10563000801A994100900191ACE7624620239B1AA1
:105640004A46DA406146130042468A4017001F432B
:1056500080E7624620239B1A2A0066469A40230070
:10566000F3401343D4E76246202300219B1A002213
:10567000009101920122DA40019280E720236246E4
:1056800026009B1ADE402F00B0466646B7404646CD
:105690003B003343C8E7C046F8B54746CE46440012
:1056A000C20F80B547024802400A84466646480059
:1056B0007F0A240EF60025009046FB00000EC90F5D
:1056C000B146FF2800D185E001267140261A91429B
:1056D00057D0002E43DD002800D07FE04946002946
:1056E00000D1AAE0013E002E00D0F7E05B1A5A017B
:1056F00000D48BE09B019C09200001F0A5FF053838
:105700008440854200DDD3E0451B23002020013585
:10571000EB40451BAC40621E944123430724002507
:105720001C40012241460A40002C04D00F211940A0
:10573000042900D00433590100D480E00135ECB2D3
:10574000FF2D00D0A3E0FF2400235B02E405580AEC
:10575000D207204310430CBC90469946F8BD002E5A
:1057600074D1601CC0B2012800DCA7E04A469C1A34
:10577000620100D5B6E0002CBED100220024002337
:10578000E3E7002E00DC85E0002846D0FF2C49D05E
:1057900080224846D2041043814601221B2E09DC98
:1057A00020204C46801B84404A462000F240441E84
:1057B000A04102439B185A0128D50135FF2D00D185
:1057C000A8E00122072494491A405B080B401343C8
:1057D0001C40A6E7002E00D078E775E7FF2C54D0D8
:1057E00080224946D2041143894601221B2E09DC3E
:1057F00020214846891B88404A460100F240481E45
:1058000081410A439B1A5A0100D573E701224146A0
:105810000A40590700D089E711E04846002858D1CE
:10582000FF2C0CD1DB08002B00D18CE78020C003BB
:1058300003435B025B0AFF2487E7FF2C25D0DB08CC
:10584000FF2DF0D05B025B0AECB27EE7002C4DD05E
:10585000FF2818D08024E404724223431B2A00DD71
:10586000C4E01C002025D440AA1A93405A1E93413C
:1058700023434A460500D31A884638E7721CF8D0FD
:10588000F243FF28EAD10A004B46FF25D7E79B01E8
:105890005B0A5AE7002E41D1651CE9B2012945DDBA
:1058A000FF2D00D14FE707244B445B081C4038E72D
:1058B00007225A4B2D1A2340144032E7002C1DD1E9
:1058C000002B7AD14B46002B00D191E00A00002535
:1058D000B5E7013E002E19D14B446CE7FF2C84D173
:1058E000FF25ACE74A468846D41A05E7002BC5D108
:1058F0000A00FF28C8D005004B46A0E7002B49D17D
:105900004B46002B77D00A00FF2598E7FF2C00D0EC
:1059100043E787E70A00FF24002316E7002C15D190
:10592000002B57D1FF28E6D14B467BE7002C20D136
:10593000002B57D04946002953D04B445A0168D513
:105940000724364A1C4001251340EAE6FF28EBD025
:105950008022D204764213431B2E53DC2025AD1B3C
:105960001A00AB40F2405C1EA34113434B440500B8
:1059700021E7002BD8D04946002900D152E78021E9
:10598000C9030F4200D14DE76046084200D049E705
:105990004B4647E74846FF25002800D14FE78022C5
:1059A000D203174204D06046104201D14B468846CC
:1059B00001224146FF250A4041E7484600281FD002
:1059C0001A1A500120D54A460724D31A1C4088468B
:1059D0000025A6E6741CC9D0F643FF28BCD14B466F
:1059E00020E799464B460025DB082BE7012340E7DB
:1059F00000220023A9E680230022DB03FF24A4E683
:105A000000251CE70123B1E7002AF1D0130000258F
:105A1000FCE60025FAE6C046FFFFFF7DFFFFFFFB27
:105A200070B5041E34D001F00FFE9E22121A962A81
:105A300007DCD2B208282EDD083884406002400A14
:105A400021E0992A09DD030021001B3399404B1EF8
:105A5000994105231B1ADC400C43052801DD431F37
:105A60009C4023000D490B40650709D00F252C40B1
:105A7000042C05D004335C0102D59F220B40121A7E
:105A80009B01580AD2B24002D205400A104370BDB1
:105A900000220020F7E76002400AF4E7FFFFFFFB67
:105AA000F0B54F464646D6460C000903C0B5490A34
:105AB000470F5E0039431F03DB0F9C4665007B0ADE
:105AC000570F1F436D0DE40F760DA146C000B84679
:105AD000D200AB1B64457BD0002B5FDD002E00D0D5
:105AE000A4E03E00164300D112E15E1E002E00D05D
:105AF0009EE1871A4346B84280410125C91A4042B7
:105B0000091A0B0200D431E149024E0A002E00D1DD
:105B10006EE1300001F098FD0300083B1F2B00DD13
:105B200061E120223900D21A9E40D1409F400E43AD
:105B30009D4200DD51E15D1B6B1C1F2B00DD7CE1F4
:105B40002021C91A3D0030008F408840DD40791E79
:105B50008F41310007222843D940002507433A40AE
:105B6000002A09D00F233B40042B05D03B1DBB422C
:105B7000BF417F42C9191F000B0200D426E26A1CF4
:105B8000C64B55056D0D9A4200D106E1C44AFF0887
:105B90000A40530752023B43120B8EE0002B00D009
:105BA000B8E06B1C5B055B0D012B00DC30E1871A54
:105BB0004346B842B641CB1A76429E1B330200D50B
:105BC0004CE13B003343A1D100220024002570E0CA
:105BD000002B00DCE5E0002E00D183E0AF4EB542A3
:105BE00060D0802636043743B846382B00DC3EE1CF
:105BF000434613431F007A1E97413F188742804156
:105C0000404209180B0200D4B0E0A44B01359D427C
:105C100000D1C3E0A24A7B080A4001210F401F4384
:105C20005108D30707221F433A4099E79B4EB542DC
:105C300038D0802636043743B846382B00DDDCE008
:105C40001F2B00DC30E11E004746203EF740BC46DB
:105C5000202B04D04026F31A46469E4032431700BC
:105C600063467A1E97411F43CCE0002B00D104E22B
:105C70004346134300D159E14B07C0081843802322
:105C8000C9081B03194208D04546ED081D4204D13E
:105C90004346D008590708432900420FC9007F4DE9
:105CA0001143C0004B07CA087C49C00803438D421A
:105CB00068D012036D05120B6D0D00211203180040
:105CC000130B0A0D12051A43764B2D0513402B4377
:105CD0005B00E4075B08234319001CBC904699460F
:105CE000A246F0BD3E00164312D05E1E002E00D02C
:105CF00000E187188742804141444042091801254C
:105D00000B0233D5022585E7644633004146100077
:105D10001D00C7E7002D00D0DAE00C000443F3D0EB
:105D20005C1C00D19FE15D4CA64200D12FE1DB431A
:105D3000382B00DD66E11F2B00DD83E12024050008
:105D4000E41A0F00DD40D940A0404346A7405B1A4B
:105D5000441EA04198462F433843171ABA42924135
:105D600043465242991A64463500CAE607223A4031
:105D7000002A00D0F6E64B07CA084849FF083B4313
:105D80008D4296D11900114300D19EE18021090373
:105D90000A431203120B414D8FE715000022002326
:105DA0008BE7002B00D0C7E06B1C5F057F0D012F38
:105DB00000DCF1E0394DAB4200D1B9E085180A00B2
:105DC000854289414244494251180722CF076D0854
:105DD0002F4349083A401D00C2E607223049ED1A18
:105DE00031403A40BCE63E002838864000279FE616
:105DF000380001F029FC20308EE6434613431F0093
:105E00007A1E9741C71BB84280414042091A78E682
:105E10000E003B0006431343002D61D1002E00D03D
:105E2000F4E0002B00D11BE164463900100039E793
:105E30001A4FBB427AD03300FFE630001F3DE840E6
:105E4000202B03D04021CB1A9E4037437B1E9F411D
:105E5000072207433A400021002589E7171A4346E5
:105E6000BA42B641591A76428E1B64464EE61F2B43
:105E700000DDADE020264746F61AB740B9461700C8
:105E8000B246DF404E463E4337005646B240561EAD
:105E9000B24117434246DA408918AEE6FF070000D8
:105EA000FFFF7FFFFFFF0F8020264746F61AB7400F
:105EB000B9461700B246DF404E463E4337005646CD
:105EC000B240561EB24117434246DA40891A99E75A
:105ED0007F4CA6425BD0802424045B42214327E709
:105EE000002E0CD1002B00D1CBE06446390010000D
:105EF000774DD7E6764FBB4218D0330075E6002BBE
:105F000014D04B07C00818438023C9081B0319424B
:105F100007D0FC081C4204D17907D0080843E146A9
:105F200021004C46420FC9001143C000684DB9E63C
:105F30001D0000220023C0E6002D5BD10D000543AB
:105F400000D1E2E65D1C00D1B0E0614DAE421FD051
:105F5000DB43382B71DC1F2B00DD96E020250F0082
:105F6000ED1AAF40B9460700AA46DF404D463D4313
:105F70002F005546A840D940451EA84188440743F4
:105F8000BF18974292415142414435003AE6644677
:105F900035004146100085E60B000343002D00D07C
:105FA00063E6002BF5D04346134300D17AE6871809
:105FB0008742804107224144404209183A400B027F
:105FC00000D4D5E6434B01351940C9E5380069E6F0
:105FD0001E004746203EF740BC46202B04D04026FA
:105FE000F31A46469E403243170063467A1E974195
:105FF0001F4302E6364DAE42CAD080252D045B42D7
:106000002943A6E70843411E8841A6E6002B00D19C
:1060100048E6871A4346B842B641CB1A76429E1BE1
:1060200033024BD5171A4346BA429241591A52428B
:10603000891A072264463A4092E501430F00791E0F
:106040008F419DE71C000F00203CE740202B03D030
:106050004024E31A99400843411E884138437CE6B6
:106060000022002425E6171A4346BA429241591AE3
:106070005242891A6446350043E541461000144DEA
:1060800010E680220024120380E61D000F00203D50
:10609000EF40BC46202B03D04025EB1A9940084323
:1060A00007006346781E87411F4369E787189742B8
:1060B0009B4141445B42C9183500A3E53B00334393
:1060C000CED0072231003A4052E600231A00F4E510
:1060D000FF070000FFFF7FFFF0B55746DE464E4644
:1060E0004546E0B5834607000E03480085B092465A
:1060F0001C00360B400DCD0F002800D19DE0954BC4
:10610000984239D08023F6001B041E43924A7B0F2D
:1061100033439946944603006344009300230026CA
:10612000FF00029323031B0B98466300E40F5246C3
:106130005B0D019400D1B3E086498B4200D19EE013
:106140004246D100802212040A435146490F1143AE
:106150008B46814952468C4600996344CB1A0021F4
:10616000D20000932B0063409A460F2E00D905E120
:106170007A4BB6009B599F465B463343994600D005
:10618000B8E002230826002700900293CAE7CB4616
:106190003A0002990195019B9A46022927D00329CA
:1061A00000D180E2012944D06D49009B8C466344B4
:1061B0001C00002C38DD530700D013E2D2085B46E8
:1061C000DB0109D55946674B19408B468021C90030
:1061D0008C46009B63441C00634B9C4207DC5B467F
:1061E00064055F075B0217431B0B620D02E000238F
:1061F0000027584A00211B031C0B0B0D1B052343D2
:1062000014055A4A380013401C4353466400DB0708
:1062100064081C43210005B03CBC90469946A24648
:10622000AB46F0BD0122524201231B1B382B00DC80
:10623000ADE1002200230027DCE75B4633439946AB
:106240005ED0002E00D18AE1300001F0FDF903009C
:106250000B3B1C2B00DD7BE11D22D31A5A460100AB
:10626000DA4008398E4013005F46334399468F4029
:106270003F4B00261B1A00930023029352E741462E
:1062800053460B433B499B468C46009B634400931B
:106290005B46002B3BD1022300221E43022161E713
:1062A000434613439B4637D04346002B00D162E15F
:1062B000404601F0C9F903000B3B1C2B00DD53E104
:1062C00002004146083A914088461D21CB1A5146AA
:1062D000D9400B0041460B439B46534693401A005E
:1062E000009B25499C46604403008C466344009310
:1062F000002137E70323B14600900C26029311E7F3
:106300000023009301330426002702930AE70323A6
:10631000C3461E43032125E701331E43002201210A
:1063200020E700239A46802300271B03094A61E7E0
:10633000802349461B03194200D1E2E05946194225
:1063400000D0DEE00B431B0317001B0BA246014AE3
:1063500050E7C046FF07000001FCFFFFE83E0108D0
:10636000FF030000FFFFFFFEFE070000FFFF0F809E
:106370000DFCFFFF01F8FFFFF3030000D94500D932
:10638000CBE000D1C6E03C0048460027009B013B23
:1063900000935B46160E1B021E43130298463304FD
:1063A0001B0C9946310C0191FEF748FF4A464243C7
:1063B0000B04210C050019438A4207D98919013DB4
:1063C0008E4203D88A4201D9851E8919881A0199FB
:1063D000FEF734FF09048C464A46210464464243D2
:1063E000090C030021438A4204D98919013B8E42DA
:1063F00000D8F1E02D041D43AB464346891A4246BE
:10640000280C12041D0C5B46140C22001B041B0CF0
:106410005A4303946B434443029568431B19150C7C
:10642000EB189C4203D980246402A44660441C0CEF
:1064300015041B042D0C20185D19814277D373D0ED
:106440000C1AA24A7D1BAF42BF419446009B7F427B
:106450006344E01B1C00864200D1DBE00199FEF79B
:10646000EDFE4A4642430B04290C070019438A42B9
:1064700007D98919013F8E4203D88A4201D9871E64
:106480008919881A0199FEF7D9FE09044A468946F6
:1064900029044D464243090C030029438A4207D987
:1064A0008919013B8E4203D88A4201D9831E89197A
:1064B0003F04891A3A00039F1A43380013041B0C47
:1064C000584381460298150C6F4343434543484661
:1064D000000C8446DB1963449F4203D980204002AC
:1064E0008446654448461F0C00041B04000C7D19BB
:1064F0001818A94200D284E000D17FE001231A439A
:1065000057E680234A461B0313431B031B0BAA4673
:106510006F4A6FE6BA4200D935E74B46DC075808A8
:106520007B081C43FF0734E70024AF4289D247446D
:106530004745A4415B466442A4196418013BA64246
:106540001ED2A0426DD800D1B6E0241A9B4678E74F
:1065500003005A46283B9A400027914688E6584651
:1065600001F072F8203072E603005246283B9A4050
:1065700093460022B4E6504601F066F820309AE6D1
:10658000A642E2D1B845DCD9341A9B4659E71F2B05
:1065900065DC504C0099A4465C46614408008C4080
:1065A00011008240D940501E82410C4314435A4688
:1065B000DA401300620709D00F222240042A05D0D6
:1065C0002200141D9442894149425B181A0262D587
:1065D0000122002300270DE68A4200D80AE7831E25
:1065E000891907E70F231340042B00D1E6E5171D97
:1065F0009742924153429B44FA08E0E5002800D1BB
:10660000D7E57118531EB14227D3A94215D358D0EC
:106610001A0073E7002B00DC04E6012300229B44F0
:10662000CDE502234744474589415B429C464942A8
:1066300089190C19E344241A03E743465F004745D0
:106640009B41B8465B429E19023A8919A94200D083
:1066500054E7404500D051E7ABE51A00F6E71F21AB
:106660005F4649420C1BE740202B07D01A49009B8C
:106670008C46634418005B4683401A43501E824197
:106680003A4307270023174009D00F210023114068
:106690001400042995D122005F075B021B0BD2086E
:1066A00017430022A6E5802359461B030B431B0317
:1066B00017001B0B064A9DE5BD42B2D89B4600243D
:1066C000BFE68045B9D31A00C3E7C046FF03000008
:1066D000FF0700001E0400003E040000F0B54F4616
:1066E0004646D6468446C0B58046194E18030F0369
:1066F0004D00000B5C0082463F0B6D0DC90F9146AB
:10670000640DDB0F0120B5420AD0B44203D0A5428C
:1067100001D157450CD01CBC90469946A246F0BD0D
:1067200066463E43F7D1AC42F5D154461443F2D10C
:106730000120C845EFD1994207D0002DEBD1634627
:106740001F433800471EB841E5E70020E3E7C04695
:10675000FF070000F0B54F464646D6464D00C0B58F
:106760000E03C90F8A462C491F035C008046360B76
:106770006D0D91463F0B640DDB0F8D421ED08C4298
:1067800016D0002D1ED130438446002C01D13A434F
:1067900023D06246002A1AD09A4529D051460220B9
:1067A0000139084001381CBC90469946A246F0BD0C
:1067B00039001143E5D002204042F4E73043FAD1DA
:1067C000AC420FD0002C0FD13A43E7D00CE00122AD
:1067D000013B934318000130E5E763460020002B9E
:1067E000E1D0DBE73A43E6D19A45D7D1A542D5DCE3
:1067F000A54205DBBE42D1D808D00020BE42D2D28D
:1068000050460123013898430130CCE7C845C5D82C
:106810000020C845F4D3C6E7FF070000F0B54F4697
:106820004646D6464D00C0B50E03C90F8A462E49CE
:106830001F035C008046360B6D0D91463F0B640DC7
:10684000DB0F8D4218D08C4211D0002D18D130436F
:106850008446002C1ED13A431CD163460020002BF5
:1068600030D0514602200139084001382AE0390071
:106870001143EAD0022025E03043FBD1AC4226D0C0
:10688000002C26D13A4324D1514602200139084038
:10689000013817E06246002A0FD09A45E1D1A5429F
:1068A00005DBBE42DDD819D00020BE420AD25046D8
:1068B000012301389843013004E00122013B934356
:1068C000180001301CBC90469946A246F0BD3A43E0
:1068D000D0D19A45C5D1A542C3DCE0E7C845C0D8B0
:1068E0000020C845E3D3EDE7FF070000F0B55746A9
:1068F000DE464E464546E0B5834606000F03480097
:1069000087B092461D003F0B400DCC0F002800D1F0
:106910006FE0DE4B984238D08023FF001B041F43FA
:10692000730F3B430193DA4B0027994600239B46A4
:10693000F60081442B0369001B0B52469846490D13
:10694000ED0F002900D185E0D04B994200D173E0D2
:106950004346DA0080231B0413435246CC48520FAF
:1069600084461343524600206144D20089442100EA
:10697000694000918C46012149448A460F2F00D975
:1069800090E0C449BF00CF59BF465B463B430193EB
:1069900000D06AE102230827002681469B46C9E70A
:1069A00032005846019B61460091022800D175E0F3
:1069B000032800D1FEE1012800D02CE100230027AC
:1069C000002600253F032A0D3F0BB34812053A432A
:1069D00002401B051343009A5B00D1075B080B4381
:1069E0003000190007B03CBC90469946A246AB4621
:1069F000F0BD5B463B43019300D12FE1002F00D156
:106A0000A5E1380000F020FE03000B3B1C2B00DD4D
:106A100096E11D22D31A5A460100DA405E46083933
:106A20008F4013008E403B4301939C4B00271B1A61
:106A3000994600239B467DE7414653460B439349C5
:106A40008C46E144002B00D01AE1022202201743B9
:106A500000228CE7134300D10DE14346002B00D107
:106A600081E1404600F0F0FD02000B3A1C2A00DDF7
:106A700072E10100434608398B4098461D239A1A5B
:106A80005346D3401A004346134352468A40494670
:106A9000081A824989468144002068E77B4B002719
:106AA00000268EE7140C1204120C1100370C360469
:106AB000350C794328008C462E00604360448346A1
:106AC00056432100300C8046584679434044029199
:106AD000844506D98846802149028C46E0444146D7
:106AE00002913604010C360C00048B4681191E0CF1
:106AF0001B041B0C0391190079438C462800754335
:106B00006544A8465843050C45447743A94203D938
:106B1000802149028C466744290C8C4639000004C8
:106B2000000C2D042D186144AB4405915946049185
:106B300001990F043F0C080C390051434243904621
:106B400002008C46090C8B4662437C4344445C44FF
:106B5000A04503D98021490288464244210C884639
:106B600061460904090C8C4639005943434370437C
:106B70007E430F0CF6182404BE19644442448C462C
:106B8000B34203D980235B0298464044029B61468E
:106B90009846049B370443449B46AB45AD416B424A
:106BA0000D0405992D0C8C467F196744FD18A846E5
:106BB0005D462D19A542A44193466442A446C344B0
:106BC000DC448F42BF4198459B4193459241A44587
:106BD000A4415B427F421F43360C52426442BF19BC
:106BE0002243BF18624638184302D20D039913435B
:106BF0006A020A43501E82416146ED0D2A434E024D
:106C00003243D90100D4B3E0012650083240024398
:106C1000DE0732435B08224C5444002C62DD5107EE
:106C200009D00F201040042805D0101D9042924139
:106C300052429B180200D90104D580241948E4006F
:106C4000034054441848844200DD27E75E075B0296
:106C5000D2081F0B630516435B0DB2E6002399466D
:106C60000133042700269B4664E6032301978146EF
:106C70000C279B465EE6012201201743002276E6A0
:106C8000032303201F43434671E6C046FF0700006D
:106C900001FCFFFF283F0108FFFF0F800DFCFFFFF5
:106CA000FF030000FFFFFFFEFE0700000023802718
:106CB00000933F030026434B83E6019B3200A4462A
:106CC000584670E6AC466EE6802701993F0339428C
:106CD0002DD03B422BD11F433F033F0B00951600A5
:106CE000384B6EE601252D1B382D00DD66E61F2D85
:106CF00040DC35481C005044160082408440EE4081
:106D0000501E824134431443EB40620709D00F22E6
:106D10002240042A05D02200141D944280414042A2
:106D20001B181A023ED501230027002649E68027BA
:106D3000019B3F031F433F033F0B0094214B40E661
:106D400003005A46283B9A40002601926DE65846B9
:106D500000F07AFC203057E603005246283B9A4068
:106D60001300002293E6504600F06EFC20307BE6D4
:106D7000CA4650E71F201E004042041BE640202D5B
:106D800003D0124C5444A3401A43501E8241324354
:106D900007260027164009D00F20002310401400BA
:106DA0000428B9D122005E075B021F0BD2081643EC
:106DB000002306E680273F031F433F033F0B1600D7
:106DC000004BFEE5FF0700001E0400003E0400002B
:106DD000F8B557464E464546DE460C000903E0B579
:106DE000490A460F5F0031431E03DB0F760A9B46BC
:106DF000530F3343C84E6500C000E40FD2006D0D41
:106E0000A24681467F0D9C469046B74200D1B9E02C
:106E10005B46012673409B46EE1BA34500D183E0F1
:106E2000002E63DD002F00D0B1E06346134300D194
:106E300023E1731E002B00D0BAE1861A6346B042EC
:106E400080410125C91A4042091A0B0200D447E1CA
:106E500049024B0A98464346002B00D189E140463F
:106E600000F0F2FB0300083B1F2B00DD7CE1202239
:106E70003000D21A4146D040994002009E400A4359
:106E80009D4200DD6AE15D1B6B1C1F2B00DD94E160
:106E9000202110003500C91A8E40DA408840DD40BC
:106EA000711E8E41110007222843002506433240FF
:106EB000002A09D00F233340042B05D0331DB342E1
:106EC000B641764289191E000B0200D43DE26A1CCD
:106ED000914B55056D0D9A4200D119E18F4AF60884
:106EE0000A40570752023743120B9BE0002E00D096
:106EF000C5E06E1C7605760D012E00DC48E1674684
:106F0000861ACB1BB042BF417F42B8461F004346A2
:106F1000FF1A3B00B8461B0200D55FE137439AD108
:106F200000220024002579E0002E00DCFAE0002F8A
:106F300000D18DE0784B9D4267D0802367461B04CB
:106F40001F43BC46382E00DC52E1634613435A1EF1
:106F500093411E1886428041404209180B0200D41A
:106F6000BEE06D4B01359D4200D1D2E06B4A730803
:106F70000A4001210E401E435108D30707221E4339
:106F8000324095E71E00164300D045E740E7624BCC
:106F90009D423AD0802367461B041F43BC46382ECF
:106FA00000DDEBE01F2E00DC3AE133006746203BBA
:106FB000DF403B00202E05D04027BF1B6646BE4069
:106FC000324390464646721E96413343DAE0002B28
:106FD00000D114E26346134300D168E180234E07D9
:106FE000C008C9081B030643194208D06046C00800
:106FF000184204D163460100D2085E071643F3002D
:107000009946C900720F444D11434B46DE08424B6E
:107010004F073743CA089D4200D16EE012036D0549
:10702000120B6D0D00211203130B0A0D12051A43EA
:107030003B4B2D0513402B435B00E4075B082343C8
:10704000380019003CBC90469946A246AB46F8BDB4
:107050006346134311D0731E002B00D007E186183E
:107060008642804161444042091801250B0237D510
:1070700002257BE73E00614691463500C5E75C4648
:10708000002D00D0E1E00B000343F3D0731C00D1CE
:10709000ACE1214B9F4200D13AE1F343382B00DDB4
:1070A0006FE11F2B00DD8CE120250E00ED1AAE40B4
:1070B000B0460600AA46DE40454635432E005546FA
:1070C000D940A8406346451EA8415B1A9C46304300
:1070D000161AB242924163465242991A3D00B4E6F2
:1070E00007223240002A00D0E4E60B4BF6084F0797
:1070F0003743CA089D4200D090E73B00134300D1BC
:10710000A6E180231B031A431203120B024D89E7E9
:1071100015000022002785E7FF070000FFFF7FFF23
:10712000FFFF0F80002E00D0C7E06B1C5E05760DC0
:10713000012E00DCF0E0C84DAB4200D1B9E085186B
:107140000A00854289416244494251180722CE070C
:107150006D082E43490832401D00A9E6BF49ED1ACB
:10716000114007223240A3E6320028388240002630
:1071700086E6300000F068FA203073E66346134379
:107180005A1E9341C61AB04280414042091A5CE639
:107190000E00674606431743002D5ED1002E00D037
:1071A000F3E0002F00D11EE15C46614691462CE7DA
:1071B000A94FBE427BD01E00F1E610001F3DE84003
:1071C000202B03D04021CB1A9A401643731E9E41B8
:1071D0000722064332400021002583E7161A634642
:1071E000B2428041591A40420B1A98465C4632E638
:1071F0001F2E00DDABE02027BB1B9A466346574697
:10720000BB40994613004F46F3401F433B0057468F
:10721000BA40571EBA4113436246F240891898E6B5
:107220002027BB1B9A4663465746BB40994613002E
:107230004F46F3401F433B005746BA40571EBA41E2
:1072400013436246F240891A9CE7834B9F425FD00A
:1072500080252D047342294320E7002E0CD1002FF6
:1072600000D1D0E05C46614691467B4DCDE67A4F39
:10727000BE421CD01E0065E6002F18D0C0084E0785
:1072800006438020C9080003014208D06346DC0899
:10729000044204D12100DA46D2085E071643F30007
:1072A000994601245346C900720F11431C406A4D90
:1072B000ABE61D0000220027B4E6002D59D10B00DB
:1072C000034300D1D6E6731C00D1B2E0624B9F426B
:1072D0001ED0F343382B6FDC1F2B00DD97E02025F9
:1072E0000E00ED1AAE40B0460600AA46DE40454606
:1072F00035432E005546A840D940451EA8418C4430
:107300000643B61896429241514261443D0025E63B
:107310003D006146914678E60B000343002D00D006
:1073200055E6002BF5D06346134300D16DE6861871
:107330008642804161444042091800220B0200D479
:10734000D0E6464B01351940B2E5B1465DE6330063
:107350006746203BDF403B00202E05D04027BF1B67
:107360006646BE40324390464646721E96413343BF
:10737000EFE5394B9F42CBD080252D047342294342
:10738000A8E70843411E8841A2E6002F00D13CE651
:107390006346861ACF1AB0429B415B42FB1A98465D
:1073A0001B024ED5161A6346B2429241591A5242F6
:1073B000891A5C4600227BE501430E00711E8E4156
:1073C0009FE71D000E00203DEE40B046202B04D06C
:1073D0004025EB1A99400843814648464346411EE2
:1073E0008841184374E60022002417E6161A634603
:1073F000B2429241591A5242891A3D0025E561462E
:107400009146154D01E680220024120379E61D0005
:107410000E00203DEE40B046202B04D04025EB1A54
:107420009940084381464E464346711E8E411E4395
:1074300067E7861896429B4161445B42C9183D004C
:107440008CE547463743CED007224146324049E6D5
:1074500000273A00E6E5C046FF070000FFFF7FFF78
:1074600030B5144D0A034B00120B5B0DC90F0024FD
:10747000AB4211DD104CA34210DC80246403224394
:107480000E4CE41A1F2C0CDD0D48C31ADA40130011
:107490005C42002900D11C00200030BD094BCC18F3
:1074A000FAE7094DE040AC4663449A4013000343B9
:1074B000EEE7C046FE0300001D0400003304000098
:1074C00013040000FFFFFF7FEDFBFFFF70B50028F6
:1074D0002DD0C317C5185D40C40F280000F0B4F8C4
:1074E000154B1B1A5B055B0D0A2815DD0B38854013
:1074F00000222D032D0B002110002D030A0D2D0B52
:1075000012052A430D4D1B052A4013435B00E40777
:107510005B082343190070BD020029001532914019
:107520000A000B21081AC5402D032D0BE3E70024A8
:10753000002300250022DEE71E040000FFFF0F806D
:1075400010B5041E25D000F07FF8144B1B1A5B0504
:107550005B0D0A2812DD0B38844000222403240B23
:107560000021100024030A0D240B120522430C4CA9
:107570001B05224013435B00590810BD0200210087
:10758000153291400A000B21081AC4402403240B31
:10759000E6E7002300240022E2E7C0461E040000C4
:1075A000FFFF0F804100090E4B1C70B5DBB2460295
:1075B000750AC40F012B14DDE0239B006D07360B09
:1075C000CB1800210A0D280012051C4D32435B0523
:1075D0002A405B0813435B00E4075B082343190060
:1075E00070BD002914D1002D1ED0280000F02CF809
:1075F0000A281CDC0B232A001B1ADA40030015336F
:107600009D400F4B12031B1A5B05160B5B0DD8E751
:10761000002D06D0320B802636036D071643094B2A
:10762000CFE7084B0026CCE700230026C9E703007C
:107630002A000B3B9A400025E3E7C046FFFF0F807E
:1076400089030000FF0700001C2101231B0498424E
:1076500001D3000C10391B0A984201D3000A0839E3
:107660001B09984201D30009043902A2105C40189A
:107670007047C0460403020201010101000000003E
:107680000000000010B5002903D1FFF7DDFF203016
:1076900002E0081CFFF7D8FF10BDC0460023C25C03
:1076A0000133002AFBD1581E704700004378002B9D
:1076B00002D18278044B1A700122044B1A70C268FE
:1076C000034B1A607047C0460002002009000020EA
:1076D0001004002010B5027886B0002A06D0012AD6
:1076E00021D00122164B1A7006B010BD4378154CFC
:1076F000002B05D1012202332370134B1A70F0E7DF
:10770000124B01A84360124B02708360114BC3609F
:10771000114B1B78037408F01BFA0423002800D0D7
:1077200003232370DDE74378002BDAD10B4B197864
:107730000029D6D09A73027ADA73427A1A74D0E7A3
:10774000090000200A020020080200206404002032
:107750006C0400207404002000020020C8140020E3
:10776000FA200022074B10B580001A700BF0C6F803
:1077700072B6BFF34F8F044B044ADA60BFF34F8FEA
:10778000C046FDE70902002000ED00E00400FA0514
:1077900010B5074C20000BF0A5F90122054B064956
:1077A00020001A700BF0E4F920000BF01BF910BD5B
:1077B000140200208A020020005C260510B504484F
:1077C0000BF090F9012103480BF0DAF810BDC04628
:1077D00070020020B415002010B5054C20000BF0FD
:1077E00081F9044801F00CFD20000BF0FBF810BDFE
:1077F000380200202802002030B5154889B00BF06F
:1078000071F901256B4668461D7007F09FFF00283F
:1078100008D16B461B790F4C002B05D00223237037
:107820000D4B1D7009B030BD03A803700B4B4360B6
:107830000B4B83600B4BC3600B4B1B78037408F03E
:1078400087F90423002800D003232370EAE7C04609
:107850005C0200200A0200200900002064040020CD
:107860006C0400207404002000020020037810B58E
:10787000042B01D1FFF7C0FF10BD000010B504F0CC
:1078800063FA064B002802D0054A1A6010BD054A6B
:107890001268002AF9D1044AF7E7C0460400002024
:1078A000102700000C02002080EE3600F0B5427870
:1078B00089B00500002A2CD10378012B14D8C44BC1
:1078C0001B78002B10D0C348C34B01781A700029D5
:1078D00021D0C249C24C0B7824780133DBB20B7043
:1078E0009C4201D80A7002706B79012B01D1FFF71D
:1078F00083FFBC4C2678002E02D0A3890133A381DC
:107900006B7B002B05D0EA78022A3BD9E02A00D114
:10791000AAE009B0F0BDB44C207800280BD0B34ADF
:10792000AF48137800780133DBB213709842DBD88C
:1079300011702170D8E7AE4B1A78002A01D0187068
:10794000D2E7AC4B1878002801D01A70CCE7FFF7CB
:1079500095FFA94BA94C196820000BF009F92000EC
:107960000BF040F8A64B1B78092B06D1A54B5A7893
:10797000072A02D19B78002BB6D0A34A13680133A3
:107980001360B1E7297BA86804F03AF90028C0D059
:107990006B460024AE680222711C68461C8003F00E
:1079A00026FA6B461B88892B44D103AD0222711D38
:1079B00028002C8003F01BFA2B88944A053B9BB2CD
:1079C0009342A6D8F11C0222914803F010FA2988AC
:1079D000904B914A4B431360904A2000136004F08F
:1079E0004BFC2988200004F047FC2988200004F083
:1079F00043FC8B4B2A8819688A4B914218D101228B
:107A00001A70012300207A4A7B4C1370794A864908
:107A10001370714B2160187003F0DEF92168774C08
:107A2000411820000BF0A4F820000AF0DBFF70E7FB
:107A30001C70E6E7822B10D10122664B1A70674B4F
:107A40001C70654B1C7004F0F3F86B4D76492000F8
:107A5000296003F0C1F92968E1E7C82B00D058E795
:107A60000122724B1A7054E7002E2DD12B7B042B70
:107A700000D04EE7AB681978012900D049E7597862
:107A8000012900D045E79978012900D041E7DB784A
:107A9000012B00D03DE76649A6810E706549A673AB
:107AA0000A705749644A0878E6731070022203A8E6
:107AB0000A702674237063700270037107F0DCFE95
:107AC000300008F08FF924E7AB6818786070072859
:107AD00000D91EE7FDF718FB04181B20253E446E55
:107AE0000123534A0025137002225249A5810A70CE
:107AF0005149257008784249087003A80270037143
:107B000007F0BAFE2800DCE73D4B0222AAE701237A
:107B1000474A13706370FCE60022454B1A7001233C
:107B2000F8E7297B364B454A197004233548167807
:107B300003700C1C033B221CF22900D9321CD2B268
:107B4000DFB2BA4200D8E4E6AA68D25C0132C2547D
:107B50000133F0E7012303A8037007F0F9FFD8E62B
:107B60000123334A3349137002220A703249002537
:107B700008782349A5810870694668460A700B7128
:107B8000257007F079FE280008F02CF92C4B03A88B
:107B900043602C4B057083602B4BC3602B4B1B78D1
:107BA000037407F0D5FF2A4B0422A84200D159E7FD
:107BB000032257E72A7B032A4CD103A8013A02701B
:107BC0005A789B7812021343838007F0C1FFA6E71F
:107BD00089020020200000204D0200208C0200209D
:107BE00088020020C81400205703002084020020CF
:107BF000500200200B020020040000205C02002044
:107C0000FE0100200C01002004020020BBA800009F
:107C10004E02002060EA00000C02002088030020D1
:107C200080FF0108580200201027000009020020F0
:107C30000800002000000020FF010020683F01082C
:107C4000640400206C040020740400200002002062
:107C50000A020020072A00D061E703A8043A027054
:107C600059789A7809020A438280DA7819791204DD
:107C700009020A4359790A4364214A4382609B7985
:107C80000373A2E7F0B595B003F036FC03F0CCFD2A
:107C9000DA48DB4B036006234360DA4B8360C36042
:107CA00001F082FAD84BD94A1968D94B481F904243
:107CB00020D91960D74AD84F1B683A600592002B2B
:107CC00000D03B60D54BD6491A68D64B8A4215D1B5
:107CD00000221A600023D44A1370D34B187804286A
:107CE00001D900F028FCFDF719FA0E008E00A30060
:107CF000DB03E803CD4A4A431A60DBE7511E07293C
:107D0000E7D90222E5E70125C94B08220B93C94BAD
:107D100007A90C93C84B0BA80D93C84B0E93C84BE7
:107D2000079307F063FBC749C7480AF053FEC74CE7
:107D3000C74920000AF04EFE200019210AF018FF62
:107D4000C44CC54920000AF045FEC44920000AF091
:107D50000FFF20000AF046FEC14CC24B2000C24972
:107D60001D700AF037FEC14920000AF001FF200013
:107D70000AF038FE022308AC20002370257107F0BA
:107D80007BFD072320002370257107F075FD00207F
:107D900008F028F8A44B1D7003F0A6FE002824D09C
:107DA0000A2403F0A7FE002806D1013C6430E4B2A7
:107DB0000AF0A4FD002CF4D1AD4B1C78002C14D19A
:107DC000AC4B1C70AC4B1C7003F032FFAB4DAC499C
:107DD0002000296003F000F89B4C2968411820001E
:107DE0000AF0C6FE20000AF0FDFDA64B1A78002A14
:107DF00003D000221A7004F00BFAA34B1B78002B5F
:107E000000D16AE75DE300230FA803709F4B436036
:107E10009F4B83609F4BC3609F4B1B78037407F09D
:107E200097FE0423002800D003237F4A1370B3E792
:107E30009A4B5B6903939847994B04901B78039383
:107E4000002B12D0974B1B78022B17D0E02B00D1C0
:107E5000CCE1944D2B78022B00D1E9E1E02B00D14D
:107E6000B5E26A468E4B127B1A708F4B8F4A1B7895
:107E7000002B00D10BE38E4B1360D5E701248D4B13
:107E80007F4A1C707D4B1A60794B1B78002B56D0B3
:107E9000894B1C70894B1B78002B1DD103F0C8FE49
:107EA0007D4B874A1B780721D45C023C2000FDF7FC
:107EB000AFFA641A04F0F0F824B2824D00283BD0E7
:107EC000200037302100FDF7BDF97F4B28701A786C
:107ED000002A01D000221A7003F0BCFE041E00D15B
:107EE00048E1654B1B78002BB3D16B4B744A1B7870
:107EF000D55CA81E844200DA26E10721FDF788FA46
:107F00006C1AA4B2714AE3B2714DA61E1370B6B2D8
:107F1000704A280031B2137003F0D6FE28003100F9
:107F200003F058FE24B26C4B2D191880AB1E18704C
:107F3000013D000A28708CE720001430C2E7624B34
:107F40001E78002E31D0434D5B4B444928001C70F5
:107F50000AF00EFE28000AF045FD424B1C70454B0E
:107F60001B78002BB8D103F063FE4B4B544A1B78AF
:107F70000721D45C023C2000FDF74AFA641A04F0A1
:107F80000BF924B24F4D002806D0200021002930E3
:107F9000FDF758F928709FE7200021001430FDF705
:107FA00051F9287004F078F896E74C4B1D78002DB5
:107FB00000D199E0404B1C70424B1C7003F038FE1E
:107FC0001F23434C6370464B26701B88A670E370DA
:107FD0001B0A2371434BA6711B7863710721200094
:107FE00003F0F8FD3C4B394A188009231370394AD5
:107FF000E071000A207213706EE7C046280200206C
:1080000000300040FF0F000080FF0108BBA8000007
:108010000C02002080EE36008803002088FF010853
:10802000C78AA900540200200A02002060EA00006A
:10803000AD760008AD780008D57600086D780008A8
:1080400061B90008F97700085C0200207002002086
:10805000BD7700081402002091770008005C260517
:10806000380200208B020020D9770008983A0000DF
:1080700020000020840200204D0200200400002087
:10808000102700008A02002009020020640400205A
:108090006C0400207404002000020020E04301086A
:1080A0000900002000000020C81400201C0000204F
:1080B000881300004C020020080000208C020020E1
:1080C0000A0000208802002057030020FE01002043
:1080D0000C010020FF010020860200205002002039
:1080E0004E02002058020020C94B1A78002A1AD0EC
:1080F0000726C84B1C70C84B1C7003F099FDC74C79
:108100002570A570667003F02BFCC5490500386822
:10811000FDF70EF80004451904220FA9C1480F9578
:1081200002F065FE5AE7C04B1978002903D0BF481A
:108130001A700AF0D7FCBE4B1B78002B00D0CBE6A0
:108140000120FFF79BFBC7E6BA4AA31CDBB2B34D85
:108150001370B94A21002800137003F0B5FDA1B2D5
:10816000280003F037FDB54B285518802C19000A5C
:1081700060706EE6B24B1B78002B00D069E6A44B12
:108180001B78002B00D064E6A94E3378002B00D07A
:108190005FE603F061FCAB4D2B78002B0AD103F0B6
:1081A0005BFC2B78002B1FD103F056FC2B78002BA7
:1081B00007D000E00224012003F0C6FD002C00D00F
:1081C00047E609229B4B00211A709B4B93481A707B
:1081D0000BF06EFA9C4B059A1A6000238D4A33709F
:1081E00013709A4A137034E60124E4E7984B9A7BA3
:1081F000002A0ED0002203219A738E4A1170874AFA
:1082000002311170D97B5170197C917001225A7022
:108210001FE65A78012A03D0042A00D019E6F5E7B0
:108220000221844A11709A897C4B110A1970EEE779
:108230000024804E874B307806A91C7007F016FA90
:10824000A04256D0844A0FAB12781C709A73092250
:108250009C81794BFF2171481A70119432700BF098
:1082600027FA734B1C700FA807F012FD002800D0EE
:10827000F7E5784B1B78002B31D062B607F0C4FDD0
:10828000764E774C33689AB2236899B204F046F878
:1082900072B62368734D013323606C4B644C1B78BA
:1082A000002B08D023780133DBB22370022B4AD88D
:1082B000654B6D4A1A602A782378002A00D13DE187
:1082C000022B0CD90022694953480B7800780133FE
:1082D000DBB222700B70984201D80A702A7000211C
:1082E00063480AF04DFB63480AF07CFB00230393CC
:1082F000B7E50121574B1970544B1B78002B05D063
:108300004B4B1A78434B8A4211D819700022524BBA
:108310002C789A563F4B307819780FAB00290AD148
:1083200019703E491C71996098819A739BE7022AE3
:10833000ECD11870EAE701211C71384C19709C606F
:108340009881D973F1E72B78002BBBD14A4B1B786E
:10835000002B00D0F1E03A4B1B78002B00D0ECE072
:108360002B4B1878002800D0E7E0FFF787FA314B55
:108370001B78092B11D1294B5A78072A02D19978F9
:10838000002998D01978002907D1002A05D1DA7977
:10839000002A02D11B7A002B8DD033680133336061
:1083A00089E727480178002904D0022B97D9227049
:1083B000027094E716480278002A04D0022B8ED966
:1083C000217001708BE7022B89D9227087E7194C45
:1083D00006A9207807F04AF90FAB00280BD000223D
:1083E0001A709A609A819A73180007F051FC431E24
:1083F0009841C3B27BE7074A2D7812782178074865
:10840000002A3BD11A701D7198609981EBE7C04634
:108410000B02002008000020880200200C01002030
:1084200060EA00000F0100208B02002014020020EF
:108430004D020020FE010020FF01002086020020E6
:108440005002002060030020040000204C020020A5
:10845000C81400208902002000020020040200202D
:108460001002002020000020102700008C020020B5
:10847000B4150020700200205703002001221A705A
:10848000802212011D7198609981DA81ACE7049B0A
:10849000990C364B4B4336499B0B09685B18EBE450
:1084A0000423344A344C1370344B200019680AF00A
:1084B0005FFB20000AF096FA6EE4314B1B78002B2C
:1084C00001D0FFF74DF92F4A1178002930D01370F1
:1084D00001222D4D019200930A2128000AF043FA4F
:1084E0000A246426002128000AF04AFA30000AF023
:1084F00005FA013C012128000AF042FAE4B23000FA
:108500000AF0FCF9002CEDD1019400942300032221
:108510000A2128000AF027FA0A3403F0EBFA0028AF
:1085200006D1013C6430E4B20AF0E8F9002CF4D141
:108530000AF02EFB30E4002377E4237813490A780D
:10854000002A00D12DE7022B00D8C8E600221048EF
:10855000227003780F4C01332478DBB203709C4205
:1085600000D9BCE602700A70B9E6C04610270000C8
:10857000040000200A0200205C0200201C000020F1
:1085800009020020080200203816002057030020AE
:108590008402002088020020FA21084B10B58900CF
:1085A00004001868FCF7C4FD00F086FB01200022DF
:1085B0002100404200F04CFB002010BD3C00002098
:1085C0000223064A10B5116803200B431360FFF71E
:1085D000E3FF00F01DFE002010BDC0460020024059
:1085E000024A1368013313607047C046DC14002050
:1085F000014B18687047C046DC14002013B5019089
:10860000FFF7F6FF0400FFF7F3FF019B001B984202
:10861000F9D313BD0121024A53688B43536070475D
:10862000005801400221024A53688B43536070474F
:10863000005801400421024A53688B43536070473D
:1086400000580140084B13B5040008491868FCF7AE
:108650006FFD44430194019B002B00D113BD019B8E
:10866000013B0193F7E7C0463C00002040420F0069
:108670000321036870B59A6804000A40012A04D1F6
:108680001968114201D0002070BD9968134A114247
:1086900008D010230120A26D1343A365E36D0343AB
:1086A000E365F1E701259A6828002A439A60FFF7FD
:1086B000C9FFFFF79DFF060023681B682B42E2D12C
:1086C000FFF796FF801B0A28F6D91023A26D012020
:1086D0001343A365E36D1D43E565D5E717000080EF
:1086E0000321036870B5040098680840012801D090
:1086F000002070BD1A680242FAD005229D6815401C
:10870000012D19D19868033A02439A601960FFF766
:108710006FFF060023689B682B42E9D0FFF768FFD4
:10872000801B0A28F6D91023A26D01201343A365EC
:10873000E36D1D43E565DCE71023A26D1343A365DC
:10874000E36D0343E365D4E70422036870B59968D9
:108750000400114201D1002070BD9968114206D079
:108760009A68920703D4102299680A439A60FFF727
:108770003FFF0425060023689B682B42EBD0FFF7E0
:1087800037FF801B0A28F6D910230120A26D13435E
:10879000A365E36D0343E365DEE7704770B504004E
:1087A0000120002C19D0A36D002B06D122005432D9
:1087B000E36520001370FFF7F0FFA36DDB0604D420
:1087C000042223689868104008D01023A26D01206D
:1087D0001343A36500235434237070BDA26D534925
:1087E000114002220A43A265032299681140504AAF
:1087F000012902D11D680D4219D180266168F60554
:108800004D006D08B54203D080252D06A94272D1D6
:108810001D69AD00AD081D611D6929431961182549
:10882000D968A943D960D968A5682943D960116876
:10883000404D29401160A16B15684906294311601C
:10884000802299685205114202D199680A439A60C0
:10885000DA6839490A402169DA60DD68E26802298C
:1088600000D10420666B216A32432A434D032A4318
:10887000256B6D002A43A569AD032A43E569ED0325
:108880002A430243C220DA60A26AFF30824204D047
:10889000E56AD8682A430243DA60626A012A06D18F
:1088A000002934D18022D96852020A43DA60216C4F
:1088B0001A69012933D12148A56C02401A61626C02
:1088C00018692A43E56C2A4302431A611A69114365
:1088D000196107215A6900208A435A615A69E16B7C
:1088E0000A435A610322E065A36D93431A000123F2
:1088F0001343A36571E71D69114EAD00AD081D61FD
:1089000015683540156015682943116087E72021F7
:10891000A06D0143A165E16D0A43E265C7E701214E
:108920000A42D6D01A698A431A61D2E7FDFEFFFFD8
:1089300008270140FFFFFFFD1902FEFF03FCFFFFB8
:10894000FFFFC3FF70B504000125002811D00223EA
:10895000826D13438365FFF7F7FE051E37D12000B4
:10896000FFF7BEFE0500012805D101250023543480
:108970002370280070BD0123A365236815495A6838
:1089800020000A405A60144A14491A609A680A4042
:108990009A60DA6812490A40DA601A6911490A4095
:1089A00007211A615A698A435A611A6A0E490A40B4
:1089B0007F211A62B4331A688A431A601A688A439C
:1089C0001A6002F0E3FA0023E365A365CEE701280D
:1089D000CBD0D2E760F7FFFF9F080000FFFFFFEF5B
:1089E00000023E8302FCFF3F00F000F0036870B518
:1089F0009B68040002205B071AD4250054352B78AD
:108A0000012B15D001232B70E369012B11D1A36D2C
:108A10000B4A00201A4080235B0013431C22A365ED
:108A20002368E06528701A609968183A0A439A60CA
:108A300070BD2000FFF71CFE0028E8D0F8E7C04614
:108A4000FEF0FFFFF8B5456904000E00082D0DD0BB
:108A500003680120DB680C25034207D02023A26DA8
:108A600054341343636000232370F8BDFFF7C0FD47
:108A7000070023681A68154223D08022A16D920056
:108A80000A43A265C022D9681201114212D1226A9A
:108A9000002A0FD11A6812070CD59A68520723D4FE
:108AA0000C215A688A435A60A26D14491140012270
:108AB0000A43A2650020A2698242D6D10C221A6024
:108AC000D3E7721CD6D0002E08D10423A26D5434F3
:108AD00013436360002303202370C6E7FFF788FD7C
:108AE000C01BB042C5D9F0E72022A16D0A43A265A0
:108AF0000122E16D0A43E265DCE7C046FEFEFFFFAE
:108B00000368186C70470000F8B5040054342378EB
:108B100006000D000220012B0BD03268013891684D
:108B200020704B0706D52022B16D0A43B2650022A2
:108B30002270F8BD80232868194E6F684103DB025C
:108B4000490B0340B74219D0906A01439162002B50
:108B500008D08023134A1B0411680A200B431360BA
:108B6000FFF770FD2B689B0305D580230D4ADB03BF
:108B700011680B43136000202070DAE7956A8D437B
:108B80009562002B04D0074A074913680B40136015
:108B90008303F0D5034A054913680B40EAE7C04652
:108BA0000110000008270140FFFF7FFFFFFFBFFF0C
:108BB000F8B5050054352B7804000220012B44D071
:108BC000012303222B70236898681040012809D1E3
:108BD0001A68024206D02023A26D1343A365002326
:108BE0002B7032E0A26D1949114002220A43032181
:108BF000A265DE68DA688A43DA6080229968120624
:108C00000A439A60FFF7F4FC070023689A68002A79
:108C10000CDB0322D96816400E43DE60A36D0020F2
:108C200093431A0001231343A365D8E7FFF7E0FC41
:108C3000C01B0A28E9D91222A36D012093431A0010
:108C400010231343A36500232B70F8BDFDFEFFFF27
:108C500030B5FF2503242A00C3B21C40E400A24023
:108C600089012940D243A14000280BDA0F2003409C
:108C7000083B0A489B089B001B18D8690240114317
:108C8000D96130BD064B80088000C018C0239B000E
:108C9000C45822401143C150F3E7C04600ED00E044
:108CA00000E100E01F2318401E3B8340014A13608F
:108CB0007047C04600E100E0094A431E012093428C
:108CC0000DD8C021074A08485360036A09061B02F1
:108CD0001B0A0B4303620020072390601360704758
:108CE000FFFFFF0010E000E000ED00E0054B1A6818
:108CF000042802D110431860704704218A431A6087
:108D0000FAE7C04610E000E0704710B5FFF7FCFF3F
:108D100010BD000010B5841DE37F022B04D0042396
:108D2000C363033B180010BD0E2103681A688A4311
:108D30001A60012219689143196018498B4216D0B4
:108D400017490F328B4212D0164A93421DD0164A51
:108D500093421DD0154A93421DD0154A9B185A4282
:108D600053415A42134B1A4080235B04D218124BD2
:108D70005A600123E3770024826B431DDC771300E4
:108D8000A242CFD090472300CCE780225200EEE7EA
:108D900080225201EBE780225202E8E708000240FD
:108DA0001C000240300002404400024058000240D3
:108DB00094FFFDBF000010FF000002408021274A01
:108DC0004900906930B50023084205D02448023399
:108DD0004469234343610B00802091698000014274
:108DE00005D001211E4C0343656929436161802040
:108DF0009169C000014205D00821194C03436569FF
:108E000029436161802091690001014205D004215C
:108E1000134C034365692943616180209169800196
:108E2000014205D010210E4C03436569294361615D
:108E30009169890305D52020094C034361690143E9
:108E40006161802091694002014205D04021044CBB
:108E50000343656929436161936130BD002002408D
:108E6000E01400200122094B1000596889070BD536
:108E70005968114203D0064ADA60064ADA600020D7
:108E8000054A1A61054A1A617047C046002002402F
:108E9000EFCDAB8905040302BFAE9D8C16151413EC
:108EA0000223034A002051680B4353607047C046B9
:108EB0000020024070B50400FFF79AFB0125060070
:108EC000184A1300916929421FD102219069084272
:108ED00000D091619A69D20513D49A69920510D491
:108EE0009A6952050DD49A6912050AD49A699204B6
:108EF00007D4802298699202104002D19B69DB035B
:108F000008D5FFF75BFF012004E0611CDAD0002CDC
:108F100001D1032070BDFFF76BFB801BA042CFD9AE
:108F2000F7E7C0460020024070B50B4C0D00237CD3
:108F300016000220012B0DD0012308482374FFF7EF
:108F4000B9FF002804D160612E600448FFF7B2FF2A
:108F50000023237470BDC046E014002050C30000FD
:108F600000218022074B10B55961074B92005C68C5
:108F700022435A6008225C6822435A607F23984348
:108F8000016010BDE014002000200240F8B5194B2C
:108F900006001B7C0F000225012B27D00123154A58
:108FA00015481374FFF786FF051E1CD101235B4291
:108FB0003B607468B3687268DB019B18A34212D9E6
:108FC0002000FFF7CDFF0C48FFF774FF08210B4B83
:108FD0005A688A435A605A6809490A405A60002808
:108FE00006D005003C600023024A13742800F8BD37
:108FF0008034DFE7E014002050C30000002002406E
:10900000FFFDFFFFF0B5544A0B688218541EA241C1
:1090100087B00393002305320592039ADA4001D109
:1090200007B0F0BD01259D40039A2A40029200D16D
:109030008FE04A6801921022019E9643022E0FD1C2
:10904000DA08920007248218176A04920F221C4043
:10905000A400A24097430A69A2401743049A1762EA
:1090600003225C00A240013ED243012E0DD8CE68FF
:109070008768A64017403E4386604668AE43019D20
:10908000ED06ED0F9D40354345600326019D0768C1
:109090003540A54017403D430560C5682A408D68AE
:1090A000A5402A43C260019AD20052D501252B4C1B
:1090B000AC46626B0F272A431D003540AD00AF4020
:1090C0006263274A9C08A400A418A268BA43A02798
:1090D0000492FF050022B84210D0224F6246B842E7
:1090E0000CD0214F9218B84208D0204F3200B8421D
:1090F00004D01F4E6244B04200D0059AAA40049D9D
:10910000019F2A43A2601B4A029C1668029DE44309
:109110003543FF0301D43500254015605668029D94
:10912000019F3543BF0301D4350025405560966843
:10913000029D019F3543FF0201D435002540956013
:10914000D568029E019F2E43BF0201D425402E0008
:10915000D660013361E7C04600E4FFAF0010024073
:10916000000001400004005000080050000C0050B6
:10917000001000500004014000690840411E884171
:10918000C0B27047002A01D0816170478162FCE75C
:10919000044B10B55A69104202D0586103F0A8FA86
:1091A00010BDC0460004014070B504000120002C31
:1091B00014D023680F4A1A600F4A1A6062685A6016
:1091C000A2689A60FFF714FA05002368D86800289F
:1091D00005D11969E268914208D01A6170BDFFF7A4
:1091E00007FA401B3028F0D90320F7E7034A1A603A
:1091F000F4E7C046CCCC000055550000AAAA0000F8
:109200000368024A00201A607047C046AAAA0000FC
:10921000704700001021024A13688B4313607047A7
:109220000070004010B503240A4A1368A343184392
:1092300010600422084B186902431A61012905D104
:1092400030BF04211A698A431A6110BD40BF20BF94
:1092500020BFF6E70070004000ED00E08023034AE5
:10926000DB0011680B4313607047C046007000407C
:109270008023034A9B0011680B4313607047C0466C
:1092800000700040F022164B30B5D96811420AD068
:109290000020012413490A68A24302430A600B68B4
:1092A0002340584030BD8021C0229D6B49050E4CA3
:1092B00052010D420AD023681A40C0235B019A4232
:1092C000E6D10A4BC01843425841E2E79D6B29435F
:1092D00099632168064C0A40996B21409963ECE739
:1092E0000010024000200240007000400040FFFFDC
:1092F000FFFFFFEFF0B5036885B00400DB074ED435
:1093000023689B0700D59FE02368DB0635D50C2337
:10931000BC4DEA681A4200D0E9E02B689B0502D5F3
:10932000E369002B50D0E0226B68606A12021340A0
:10933000984200D8C9E0FFF7A5FF002844D16B6828
:10934000B14A1340626A13436B606A68236A12026F
:109350001B06120A13436B60636AEA68590B802389
:1093600001311B028B401206A849120F8A5C0320B0
:10937000D340A74A1360FFF70FF923681B0700D5F6
:10938000ECE023685B0700D50FE123689B0600D55E
:1093900090E1A16A002900D0C0E1002015E00C2175
:1093A000984DEB680B40082B08D08023EA685B02DD
:1093B0000A408A420BD1EA681A4208D02B689B0304
:1093C0009ED56368002B9BD1012005B0F0BD62687B
:1093D0009A4212D12A6813432B60FFF709F98026BD
:1093E0000700B6022B68334200D089E7FFF700F987
:1093F000C01B6428F6D90320E7E7A021C9028A42EE
:1094000005D180222968D2020A432A60E2E729684E
:1094100080480140296029680B400393039B7E49E3
:109420002B680B402B60002AD7D1FFF7E1F880268C
:109430000700B6022B68334200D161E7FFF7D8F886
:10944000C01B6428F6D9D6E70C216E4DEA680A40A5
:10945000042A06D0EB680B408B4210D1EB68DB038B
:109460000DD42B685B0702D5E368012BACD16A6889
:1094700023696A491B020A4013436B6044E7E268B0
:109480002B68002A10D009218B4313432B60FFF770
:10949000AFF8042607002B683342E8D1FFF7A8F89D
:1094A000C01B0228F7D9A6E7012293432B60FFF7E0
:1094B0009FF8042607002B68334200D124E7FFF70A
:1094C00097F8C01B0228F6D995E76B684E4A1340FF
:1094D00003436B606A68236A12021B06120A134375
:1094E0006B60FFF7CFFE002800D135E76CE7E3693A
:1094F000002B20D080232A685B0013432B60FFF7EA
:1095000077F880260700B6002B6833420DD06B68D1
:109510003D4A1340626A13436B606A68236A120211
:109520001B06120A13436B6027E7FFF761F8C01BA5
:109530000228E9D95FE72B68394A802613402B605F
:10954000FFF756F80700B6002B68334200D114E746
:10955000FFF74EF8C01B0228F6D94CE762690123D9
:10956000284D002A10D02A6D022613432B65FFF7E1
:109570003FF807002B6D334200D002E7FFF738F8C1
:10958000C01B0228F6D936E72A6D02269A432A65BF
:10959000FFF72EF807002B6D334200D1F1E6FFF7FD
:1095A00027F8C01B0228F6D925E780230021154D96
:1095B0005B05AA6B00911A4204D1AA6B1343AB63FB
:1095C000012300938027174E7F0033683B4208D069
:1095D0008022A3685200934226D12A6D13432B6543
:1095E00047E033683B433360FFF702F8019033688C
:1095F0003B42EDD1FEF7FCFF019BC01A6428F6D96F
:10960000F9E6C04600100240FF1FFFFF4C4401086E
:109610003C000020FFFFFEFFFFFFFBFFFFE0FFFF1E
:10962000FFFEFFFF00700040002B16D12B6D604A3B
:10963000802713402B652B6D5E4ABF0013402B65BE
:10964000FEF7D6FF06002B6D3B422AD0FEF7D0FF77
:10965000594B801B9842F6D9CDE6A021C9008B4218
:109660000DD18023296DDB000B432B652B6D1A4335
:109670002A65FEF7BDFF80270600BF000EE02B6DB8
:109680004B4A13402B652B6D4A4A1340A7E7FEF760
:10969000AFFF494B801B984200D9ACE62B6D3B4293
:1096A000F5D0009B012B00D06FE6AB6B434A134013
:1096B000AB636AE6A1690123414D424A002918D0F3
:1096C000A96802261943A960696B0B436B63802369
:1096D000116A9B010B431362FEF78AFF0700AB6818
:1096E000334200D055E6FEF783FFC01B0228F6D9AF
:1096F00081E6A96802269943A960136A32490B40A2
:109700001362FEF775FF0700AB68334200D140E6F5
:10971000FEF76EFFC01B0228F6D96CE60C22284D1E
:109720000120EB681340934200D14EE62B68274A94
:1097300013402B6002292BD1FEF75AFF8026070029
:10974000B6042B6833421DD1216BE36AEA680B43F0
:109750001F490A401343626B80241343EB6080234C
:109760002A685B0413432B60FEF742FF0600A40443
:109770002B68234200D010E6FEF73AFF801B022838
:10978000F6D938E6FEF734FFC01B0228D9D932E6F5
:10979000FEF72EFF80240600A4042B68234200D18C
:1097A000FBE5FEF725FF801B0228F6D923E6C0461D
:1097B000FFFEFFFFFFFBFFFF88130000FFFFFFEF2F
:1097C0000010024000000140FFDFFFFFFFFFFFFE2F
:1097D000FFFF02FF0C22194B10B5D9680A40082A76
:1097E00029D00C2A09D0042A1DD11868144BC006B0
:1097F000C0171840134BC01810BD8A021248120F30
:10980000825C0902D868890F0131C00304D50F4872
:109810005043FBF78DFCEFE71B68DB0601D50C48D6
:10982000F6E70848F4E780205B6800021B045B0F42
:1098300001339840E0E70548DEE7C04600100240EB
:1098400000E548FF0024F4006444010800127A0097
:1098500000093D00F7B50122534C06002368019131
:1098600013408B4228D33268930731D4D30737D4BF
:109870000123226801991A408A4200D985E03268A2
:109880004A4C530700D588E0130706D5E2683369D0
:109890004749DB000A401343E360FFF79BFFE3689F
:1098A000444A1B061B0FD35CD840434B186003206F
:1098B000FEF772FE00200AE02368019993430B43F0
:1098C000236023681340019A9342CCD00120FEBD4F
:1098D000F0203649CB688343B0680343CB60C5E7CB
:1098E000324D72682B68022A19D19B03EED50321F1
:1098F000EB688B431343EB60FEF77AFE7368070057
:10990000022B19D10C22EB681340082BB0D0FEF7C4
:109910006FFE2A4BC01B9842F4D90320D7E7032AD5
:1099200002D19B01E3D4D1E7012A02D15B07DED447
:10993000CCE79B05DBD4C9E7032B0CD10C22EB68E9
:109940001340934200D193E7FEF752FE1B4BC01B1E
:109950009842F3D9E1E7012B11D00C22EB681342B6
:1099600000D185E7FEF744FE144BC01B9842F4D9A2
:10997000D3E7FEF73DFE114BC01B9842CDD80C2219
:10998000EB681340042BF4D172E722689A432260FB
:1099900022681A4200D172E798E7E36808490B4051
:1099A000F1680B43E3606FE70020024000100240C3
:1099B000FFC7FFFF4C4401083C0000208813000053
:1099C000FFF8FFFF014B18687047C0463C000020BD
:1099D000044B054ADB685B055B0FD35C034A1068E8
:1099E000D8407047001002405C4401083C00002051
:1099F000044B054ADB689B045B0FD35C034A106889
:109A0000D8407047001002405C4401083C00002030
:109A10000368F7B505009B063DD5802300215F4C08
:109A20005B05A26B00911A4204D1A26B1343A3639E
:109A30000123009380275A4E7F0033683B426CD04D
:109A40006868C023C02601002268B6039B0230402C
:109A5000324019401E00904200D06FE0236D334029
:109A600000D074E06968C0230A009B021A409A4241
:109A700007D123684B480340C020800301400B43BB
:109A80002360236D1A43009B2265012B03D1A36B36
:109A9000454A1340A3632B68DA0706D503203F49E4
:109AA000CA6C8243A8680243CA649A0706D50C2090
:109AB0003A49CA6C8243E8680243CA645A0706D529
:109AC00036493A48CA6C024028690243CA641A07F8
:109AD00006D532493648CA6C024068690243CA64F6
:109AE000DA0506D52D493348CA6C0240A8690243FD
:109AF000CA645A0606D529492F48CA6C0240286A0A
:109B00000243CA6400201B0617D5244A2B49D36C94
:109B10000B40E9690B43D3640FE033683B43336088
:109B2000FEF766FD019033683B4289D1FEF760FD88
:109B3000019BC01A6428F6D90320FEBD994200D0CB
:109B40008CE7236801209B0300D487E7F5E78B426D
:109B500000D187E72B689B0600D483E78022216D24
:109B6000206D120302432265226D124B14480B40F4
:109B7000024022652365CB0500D473E7FEF738FD6C
:109B800080270600BF00236D3B4200D06AE7FEF746
:109B90002FFD0C4B801B9842F5D9CDE700100240F9
:109BA00000700040FFFFCFFFFFFFFFEFFFF3FFFF5D
:109BB000FFCFFFFFFFFFFCFFFFFFFFFBFFFFF3FFF8
:109BC000FFFFF7FF8813000010B5082800D1CBE095
:109BD00010D8022800D19CE0042800D1A9E0012877
:109BE0000ED103216D4AD36C0B4000D082E0FFF709
:109BF000FFFE52E0202819D004D8102800D1C3E07D
:109C000000204AE0402849D080235B009842F7D1E9
:109C1000C021624A8902D36C0B4000D17EE08021D2
:109C200089028B4268D080225202A9E0C0248021A0
:109C30005A4AA402106D136D490223408B4203D18E
:109C40008005C00FC00328E0802189028B4209D122
:109C50000223184043425841514B40421840514B57
:109C6000C0181AE00020A34217D113680B4214D089
:109C7000C023106880229B031840920390420BD0AF
:109C8000984200D188E0484BC01843425841474BA6
:109C900040421840464BE3E7464810BD80203F4B0A
:109CA000C004DA6C10401BD11A689201F5D5DA684D
:109CB0004148D9689202120F825C0902D868890F64
:109CC0000131C0030AD418683C4BC006C0171840C5
:109CD0003B4BC0185043FBF72BFADEE73948F9E756
:109CE00098680223184043425841374B404218407D
:109CF000364BB5E7022B02D11068042324E0012B78
:109D000002D1FFF767FDC8E70020032BC5D1106D16
:109D100096E70C21214AD36C0B4002D1FFF758FE85
:109D2000BBE7082BE8D0042BEBD000200C2BEED0A7
:109D3000B3E7C021194A0901D36C0B40EED080244F
:109D40002401A34208D11368184043425841204BD4
:109D5000404218401A4B83E78020C0008342D0D095
:109D600000208B42D3D098E7C0210C4A8901D36CE4
:109D70000B40D3D0802189018B42BDD0802252017B
:109D8000934200D03CE7BCE7044B986B8023DB0395
:109D9000184000D181E7C1E70E487EE7001002407D
:109DA000786FFFFF889000000000F0FF807BE1FFEC
:109DB00000093D0040420F006444010800E548FFEF
:109DC0000024F40000127A00009423FD006CDC02F1
:109DD00000DC0BFF20A1070070470000F7B5022749
:109DE000451CEB7F04003800012B24D00123CA223C
:109DF000EB772368E619F7775A62773A5A62AD3201
:109E0000914228D19A6821490A409A609A6820496B
:109E10000A409A60FEF7ECFB01230090019323684F
:109E2000DF68019B1F4007D0FF22236800205A6291
:109E30000123F377E877FEBDFEF7DAFB009BC01A3B
:109E4000FA239B009842EAD9FF22032023685A6232
:109E5000F077EF77EFE79A680E490A409A609A68C0
:109E60000D490A409A60FEF7C3FB019700902368F2
:109E7000DF68019B1F40D7D1FEF7BAFB009BC01AD9
:109E8000FA239B009842F2D9DEE7C046FFFEFFFFAF
:109E9000FFEFFFFFFFFDFFFFFFDFFFFF7047000049
:109EA000036810B59A680400D2040AD5DB68DB05A4
:109EB00007D5FFF7F3FF21680E4BCA68D2B21343F0
:109EC000CB6023689A6892040BD5DB689B0508D5A4
:109ED000200000F025FB2168074BCA68D2B213436B
:109EE000CB608022054B92025A6101230234E37752
:109EF00010BDC0467FFEFFFF7FFDFFFF0004014055
:109F0000A0210268F8B5D36804008B43D360FEF744
:109F10006FFBFA2706002025BF002368DB682B4271
:109F200001D00020F8BDFEF763FB801BB842F4D9D6
:109F30000320F7E7F8B5402403680500DA682242F9
:109F400001D00020F8BD01225242DA60FEF750FB3A
:109F5000FA270600BF002B68DB682342F1D1FEF729
:109F600047FB801BB842F6D90320EBE770B504002D
:109F70000120002C1BD0A51CEB7FDBB2002B04D1F1
:109F80002218D3772000FFF727FF0223CA22EB779E
:109F9000236820005A62773A5A62FFF7CBFF2368A2
:109FA000002805D0FF225A6204230120EB7770BD00
:109FB0009A68124926690A409A6062689968324331
:109FC000A66932430A439A60E2681A61A268196975
:109FD00012040A4380211A61DA688A43DA60DA6C73
:109FE0007D398A43DA64E2696469D96C22430A43A1
:109FF000DA64FF225A620123EB77D8E7BFFF8FFFB5
:10A000000023092803D81B011843C0B270470A383F
:10A010000133C0B2F5E700000223F0B5471C0C0085
:10A02000F97F85B005001E00012937D00121F9779D
:10A03000C118CB770191402106686378207802939C
:10A04000B3680B40002A2CD1002B00D1E370FFF73E
:10A05000D7FF03900298FFF7D3FF0290A078FFF795
:10A06000CFFF0300E07800041843039B1B04184350
:10A07000029B1B021843CA237362773B73620290F0
:10A080002800FFF757FF2B68061E16D0FF225A62E2
:10A090000423019AD3770023FB770126300005B013
:10A0A000F0BD002B00D1E370029B00041B0218439B
:10A0B000A3781843E3781B04DCE71548029A154996
:10A0C00002401A609A6820690A409A60E2689968BA
:10A0D00002430A4380219A60DA688A43DA609B6807
:10A0E0009B060CD42800FFF70BFF002807D0FF22A7
:10A0F0002B685A620423019AD377FE77CDE7FF22BB
:10A100002B685A620123019AD3770023FB77C5E7B6
:10A110007F7F7F00FFFFFBFF0223F0B5471C0E008F
:10A12000F97F85B004001D00012936D00121F9779F
:10A13000C1180191CB77317873784903B578F078FD
:10A140000291002A4CD11032134202D093430A33B9
:10A150007370FFF755FF03907078FFF751FF06000B
:10A160002800FFF74DFF039B36021D04029B184396
:10A170000543CA22236820005A62773A5A62FFF7E1
:10A18000D9FE2E432368051E0AD0FF225A620423FB
:10A19000019AD3770023FB770125280005B0F0BD95
:10A1A0008021124806405E60DA688A43DA609B6864
:10A1B0009B060CD42000FFF7A3FE002807D0FF2247
:10A1C00023685A620423019AD377FD77E4E7FF22DC
:10A1D00023685A620123019AD3770023FB77DCE7D7
:10A1E000029A0004104305431E02C2E73FFFFF002E
:10A1F0000223F7B50D00411CCE7F04001800012E8C
:10A2000000D18CE00138C877E118CB7740216B781A
:10A2100026680093B3682878AF780B40002A5DD198
:10A22000002B00D1EB70FFF7EBFE01900098FFF7D9
:10A23000E7FE00903800FFF7E3FE07006B1CD87FB5
:10A24000FFF7DEFE6A69EB691343EA7812041343F1
:10A250001F43019B1B041F43009B1B021F43AA6952
:10A260006B68000613430093CA236A6A7362773BE4
:10A270007362AD3307439A4252D1B3683B4A1340ED
:10A28000B360F2683A4BD2B21343F360FEF7B0F911
:10A29000060001222368DD68154031D0009ADF6195
:10A2A0005A648022996852000A439A608022996811
:10A2B00052010A439A6080222E4B920219680020B4
:10A2C0001143196099680A439A60FF2223685A6211
:10A2D000FE3AA31CA418DA77E07720E0002B00D127
:10A2E000EB70EB696A69000413431F43009B07434B
:10A2F00018020743E8786B1C00040743D87FAEE7D9
:10A30000FEF776F9FA23801B9B009842C1D9FF2201
:10A31000032023685A62A31C0134D877E577FEBD79
:10A32000B368154A1340B360F268144BD2B21343BA
:10A33000F360FEF75DF9060002222368DD68154030
:10A340000BD0009A1F629A648022996892000A4397
:10A350009A60802299689201ABE7FEF749F9FA23E7
:10A36000801B9B009842E7D9D1E7C046FFFEFFFF64
:10A370007FFEFFFF00040140FFFDFFFF7FFDFFFFA9
:10A380000A23020953430F2210401818C0B2704725
:10A3900070B50C0001683F208B6A63600B695B0439
:10A3A0005B0CA3600B680E490B40190C1E0ADDB252
:10A3B00040230840F6B2194020706670A570E17025
:10A3C000002A0AD1FFF7DCFF20703000FFF7D8FF2A
:10A3D00060702800FFF7D4FFA070002070BDC04659
:10A3E0007F7F7F0070B50C0003680E495B680B40EF
:10A3F000180CDD04DEB21B04ED0E5B0FE07065701F
:10A40000A6702370002A0AD1FFF7BAFFE070280077
:10A41000FFF7B6FF60703000FFF7B2FFA0700020BA
:10A4200070BDC0463FFFFF00F7B50C0001938023CD
:10A4300001685B00651C2C4E9A4233D16262CA6986
:10A44000486C110CC9B2C13B9C460B4023707F2362
:10A45000170A1F401340A37040231940E170614662
:10A46000130E40040B40400C67706060EB77802354
:10A47000DB0513403240E3616261019B002B0FD189
:10A480002078FFF77DFF20706078FFF779FF60701C
:10A49000A078FFF775FFA070E87FFFF771FFE877FE
:10A4A0000020FEBD80233F229B0063620B6A886C04
:10A4B000190CC9B294460A4022707F221F0A174025
:10A4C0001A40A27040221140E17061461A0E400409
:10A4D0000A40400C67706060EA778022D2051A401B
:10A4E0003340E2616361C8E780808080022210B55A
:10A4F000411CCC7F03001000012C10D098181B6861
:10A50000C277C8325A62773A5A629C68333A224319
:10A510009A60FF225A620123C3770020C87710BDDA
:10A520007047704770B504000120002C37D025001B
:10A5300051352B78DBB2002B05D12200503213703D
:10A540002000FFF7EEFF0223402221682B700B68EA
:10A55000A06893430B606368A2690343E068034308
:10A560002069034360690343E0690343206A0343AE
:10A57000A06A034380208000104003430B60042343
:10A58000120C1A40636A00201A43E36A4A600B61A6
:10A59000CB69034A1340CB61012360652B7070BD0A
:10A5A000FFF7FFFF704770B504000120002C10D0AA
:10A5B000250002234021226851352B7013682000AA
:10A5C0008B431360FFF7EEFF00205034606028706B
:10A5D000207070BD036806491A686A300A401A6024
:10A5E0009A682331FF318A439A60202303707047B1
:10A5F000DFFEFFFF704770B5060069363378040050
:10A600000220202B24D10138002921D0002A1FD07C
:10A610008023A5685B019D4204D12369002B01D1F1
:10A62000014215D1250068352B780220012B0FD06F
:10A6300023005033E1645A801A80002321222168CC
:10A64000E366327008685F32024318002B700A60BC
:10A6500070BD0000F0B506006A36347803000220B1
:10A66000202C35D10138002932D0002A30D0802565
:10A670009C686D01AC4204D11D69002D01D10142DD
:10A6800026D11D0068352F780220012F20D00138F7
:10A6900028705965190058310A804A808022520179
:10A6A000944218D11A69002A13D113491A005C3256
:10A6B000118000202222D8661B6832709968213AE6
:10A6C0000A4328709A609022196852000A431A605F
:10A6D000F0BDFF21EAE7002C04D11A69002AF8D066
:10A6E0007F21E3E7802252059442E2D11A69002AD1
:10A6F000F6D03F21DAE7C046FF010000020070B546
:10A700006A321178036822292DD1010080245C313E
:10A710000D88596A640129408568436DA5421ED1A0
:10A720000469002C1BD11980023343650100002409
:10A730005A310B88013B9BB20B80A3420DD10368B9
:10A740000C4D19682940196099682335FF35A943D4
:10A7500099602023137003F029F9200070BD5C1C60
:10A7600044651970E2E70822996902240A439A6154
:10A77000F3E7C046DFFEFFFF0F21F8B503680400D2
:10A78000DA691868114008D120252A4205D02842EC
:10A7900003D02000FFF7B2FFF8BD9E68002961D00A
:10A7A000012135000D4003D190277F00384259D058
:10A7B0000A4205D0C60503D51962E66E3143E1664B
:10A7C00002210A4206D0002D04D01962E66E491813
:10A7D0003143E16604210A4206D0002D04D01962FB
:10A7E000E66E02393143E166110708D5810601D4CE
:10A7F000002D04D008211962E36E1943E166E36E6F
:10A80000002BC9D020231A4204D0184202D02000C5
:10A81000FFF774FFE36E20001B0704D423689D68D4
:10A8200040231D401AD0FFF7D5FE402123689A68C7
:10A830000A420FD09A68606E8A439A60002809D055
:10A84000324B8363FEF766FA0028A5D0606E836BF7
:10A850009847A1E7200003F0F1F89DE703F0EEF838
:10A86000E56699E7802149030A420BD0750209D5B4
:10A87000220019622023693213702000537000F007
:10A880008DFA89E780210A422DD008422BD0220080
:10A8900069321278212A00D07EE7200052300288E7
:10A8A000002A07D11A688A431A60402219680A43AD
:10A8B0001A6071E78021A568E26C49018D420DD1D3
:10A8C000216900290AD111880232C905C90D99628E
:10A8D000E2640388013B9BB203805DE7511CE164A5
:10A8E00012789A62F5E740210A4200D154E7084203
:10A8F00000D151E71A6820008A431A602300202201
:10A9000069331A7003F00EF846E7C04611A9000833
:10A91000806A0023020010B55A321380083A13806F
:10A9200003F08CF810BD0000F8B5050003688268DC
:10A930000069196802436869854E0243E869024369
:10A94000844801400A431A605A6883490A40E9680A
:10A950000A435A60A969B34201D02A6A11439A682E
:10A960007E4802400A439A607D4A934217D10322EF
:10A970007C4BDB6C13407C4AD45C0220FFF724F94B
:10A980002F680300B74267D1082C00D9DEE0200011
:10A99000FAF7BAFB31DC39DC5CDCDCDC5F00734AE3
:10A9A000934205D10C226F4BDB6C1340704AE3E7F6
:10A9B000704A00249342E0D06F4A9342DDD01034B5
:10A9C000B342DAD1C0228021664B1201DB6CC90090
:10A9D00013400C3C8B42D0D004D80024A342CCD0EE
:10A9E0001024CAE78021022409018B42C5D0063415
:10A9F0009342C2D0F4E7FEF7EBFF00240300A0422D
:10AA000009D12000F8BD574B5C481B685C4ADB0647
:10AA1000DB1703409B1803216A68012451439942C4
:10AA2000EFD811039942ECD300275608190E1802EB
:10AA3000801979413B00FAF72FFD524BC218524B57
:10AA40009A42DED82B68D8600024DAE7FEF7C2FE0F
:10AA5000D3E780231B02DEE78022E96912029142DC
:10AA60003FD1082C3AD82000FAF74EFB050F1738D3
:10AA70003038383833006A685B0011005008181805
:10AA8000FAF756FB002480B216E0FEF7B1FF6B68C0
:10AA900040005B08C0186968F2E7324B69681C68BF
:10AAA000102348081C4002D0384BC018E8E7384B48
:10AAB000C018FAF73DFB80B20F2302009A4313003F
:10AAC00000072A68400F1843D0609AE7FEF782FE1D
:10AAD000DDE76B68580880235B02DBE70124002078
